{"abi":[{"type":"constructor","inputs":[{"name":"_treasury","type":"address","internalType":"address"},{"name":"_defaultFeeBps","type":"uint256","internalType":"uint256"},{"name":"_defaultB","type":"uint256","internalType":"uint256"}],"stateMutability":"nonpayable"},{"type":"function","name":"defaultB","inputs":[],"outputs":[{"name":"","type":"uint256","internalType":"uint256"}],"stateMutability":"view"},{"type":"function","name":"defaultFeeBps","inputs":[],"outputs":[{"name":"","type":"uint256","internalType":"uint256"}],"stateMutability":"view"},{"type":"function","name":"deployMarket","inputs":[{"name":"owner","type":"address","internalType":"address"},{"name":"resolver","type":"address","internalType":"address"},{"name":"cellSizeE6","type":"int32","internalType":"int32"},{"name":"marketURI","type":"string","internalType":"string"}],"outputs":[{"name":"market","type":"address","internalType":"address"}],"stateMutability":"nonpayable"},{"type":"function","name":"treasury","inputs":[],"outputs":[{"name":"","type":"address","internalType":"address"}],"stateMutability":"view"},{"type":"event","name":"MarketDeployed","inputs":[{"name":"market","type":"address","indexed":true,"internalType":"address"},{"name":"owner","type":"address","indexed":true,"internalType":"address"},{"name":"marketURI","type":"string","indexed":false,"internalType":"string"}],"anonymous":false}],"bytecode":{"object":"0x60e060405234801561000f575f5ffd5b506040516161bf3803806161bf83398181016040528101906100319190610203565b5f73ffffffffffffffffffffffffffffffffffffffff168373ffffffffffffffffffffffffffffffffffffffff160361009f576040517f08c379a0000000000000000000000000000000000000000000000000000000008152600401610096906102ad565b60405180910390fd5b6103e88211156100e4576040517f08c379a00000000000000000000000000000000000000000000000000000000081526004016100db90610315565b60405180910390fd5b5f8111610126576040517f08c379a000000000000000000000000000000000000000000000000000000000815260040161011d9061037d565b60405180910390fd5b8273ffffffffffffffffffffffffffffffffffffffff1660808173ffffffffffffffffffffffffffffffffffffffff16815250508160a081815250508060c0818152505050505061039b565b5f5ffd5b5f73ffffffffffffffffffffffffffffffffffffffff82169050919050565b5f61019f82610176565b9050919050565b6101af81610195565b81146101b9575f5ffd5b50565b5f815190506101ca816101a6565b92915050565b5f819050919050565b6101e2816101d0565b81146101ec575f5ffd5b50565b5f815190506101fd816101d9565b92915050565b5f5f5f6060848603121561021a57610219610172565b5b5f610227868287016101bc565b9350506020610238868287016101ef565b9250506040610249868287016101ef565b9150509250925092565b5f82825260208201905092915050565b7f5a45524f5f5452454153555259000000000000000000000000000000000000005f82015250565b5f610297600d83610253565b91506102a282610263565b602082019050919050565b5f6020820190508181035f8301526102c48161028b565b9050919050565b7f46454500000000000000000000000000000000000000000000000000000000005f82015250565b5f6102ff600383610253565b915061030a826102cb565b602082019050919050565b5f6020820190508181035f83015261032c816102f3565b9050919050565b7f42000000000000000000000000000000000000000000000000000000000000005f82015250565b5f610367600183610253565b915061037282610333565b602082019050919050565b5f6020820190508181035f8301526103948161035b565b9050919050565b60805160a05160c051615de76103d85f395f818160da015261018b01525f8181610122015261016a01525f818160fe01526101490152615de75ff3fe608060405234801561000f575f5ffd5b506004361061004a575f3560e01c80633f2480131461004e57806361d027b31461006c578063bcae25a41461008a578063f41365bf146100a8575b5f5ffd5b6100566100d8565b6040516100639190610276565b60405180910390f35b6100746100fc565b60405161008191906102ce565b60405180910390f35b610092610120565b60405161009f9190610276565b60405180910390f35b6100c260048036038101906100bd9190610494565b610144565b6040516100cf91906102ce565b60405180910390f35b7f000000000000000000000000000000000000000000000000000000000000000081565b7f000000000000000000000000000000000000000000000000000000000000000081565b7f000000000000000000000000000000000000000000000000000000000000000081565b5f84847f00000000000000000000000000000000000000000000000000000000000000007f00000000000000000000000000000000000000000000000000000000000000007f000000000000000000000000000000000000000000000000000000000000000087876040516101b890610251565b6101c89796959493929190610583565b604051809103905ff0801580156101e1573d5f5f3e3d5ffd5b5090508473ffffffffffffffffffffffffffffffffffffffff168173ffffffffffffffffffffffffffffffffffffffff167f17700d3f784ec84c95155815b843e11cc42687ab9b635e07535ea2da77b4061b8460405161024191906105f7565b60405180910390a3949350505050565b61579a8061061883390190565b5f819050919050565b6102708161025e565b82525050565b5f6020820190506102895f830184610267565b92915050565b5f73ffffffffffffffffffffffffffffffffffffffff82169050919050565b5f6102b88261028f565b9050919050565b6102c8816102ae565b82525050565b5f6020820190506102e15f8301846102bf565b92915050565b5f604051905090565b5f5ffd5b5f5ffd5b610301816102ae565b811461030b575f5ffd5b50565b5f8135905061031c816102f8565b92915050565b5f8160030b9050919050565b61033781610322565b8114610341575f5ffd5b50565b5f813590506103528161032e565b92915050565b5f5ffd5b5f5ffd5b5f601f19601f8301169050919050565b7f4e487b71000000000000000000000000000000000000000000000000000000005f52604160045260245ffd5b6103a682610360565b810181811067ffffffffffffffff821117156103c5576103c4610370565b5b80604052505050565b5f6103d76102e7565b90506103e3828261039d565b919050565b5f67ffffffffffffffff82111561040257610401610370565b5b61040b82610360565b9050602081019050919050565b828183375f83830152505050565b5f610438610433846103e8565b6103ce565b9050828152602081018484840111156104545761045361035c565b5b61045f848285610418565b509392505050565b5f82601f83011261047b5761047a610358565b5b813561048b848260208601610426565b91505092915050565b5f5f5f5f608085870312156104ac576104ab6102f0565b5b5f6104b98782880161030e565b94505060206104ca8782880161030e565b93505060406104db87828801610344565b925050606085013567ffffffffffffffff8111156104fc576104fb6102f4565b5b61050887828801610467565b91505092959194509250565b61051d81610322565b82525050565b5f81519050919050565b5f82825260208201905092915050565b8281835e5f83830152505050565b5f61055582610523565b61055f818561052d565b935061056f81856020860161053d565b61057881610360565b840191505092915050565b5f60e0820190506105965f83018a6102bf565b6105a360208301896102bf565b6105b060408301886102bf565b6105bd6060830187610267565b6105ca6080830186610267565b6105d760a0830185610514565b81810360c08301526105e9818461054b565b905098975050505050505050565b5f6020820190508181035f83015261060f818461054b565b90509291505056fe610140604052348015610010575f5ffd5b5060405161579a38038061579a833981810160405281019061003291906104d3565b60015f819055505f73ffffffffffffffffffffffffffffffffffffffff168773ffffffffffffffffffffffffffffffffffffffff16141580156100a157505f73ffffffffffffffffffffffffffffffffffffffff168673ffffffffffffffffffffffffffffffffffffffff1614155b80156100d957505f73ffffffffffffffffffffffffffffffffffffffff168573ffffffffffffffffffffffffffffffffffffffff1614155b610118576040517f08c379a000000000000000000000000000000000000000000000000000000000815260040161010f906105e6565b60405180910390fd5b6103e884111561015d576040517f08c379a00000000000000000000000000000000000000000000000000000000081526004016101549061064e565b60405180910390fd5b5f831161019f576040517f08c379a0000000000000000000000000000000000000000000000000000000008152600401610196906106b6565b60405180910390fd5b5f8260030b136101e4576040517f08c379a00000000000000000000000000000000000000000000000000000000081526004016101db9061071e565b60405180910390fd5b8673ffffffffffffffffffffffffffffffffffffffff1660808173ffffffffffffffffffffffffffffffffffffffff16815250508573ffffffffffffffffffffffffffffffffffffffff1660a08173ffffffffffffffffffffffffffffffffffffffff16815250508473ffffffffffffffffffffffffffffffffffffffff1660c08173ffffffffffffffffffffffffffffffffffffffff16815250508360e081815250508261012081815250508160030b6101008160030b8152505080600390816102af9190610943565b504260048190555050505050505050610a12565b5f604051905090565b5f5ffd5b5f5ffd5b5f73ffffffffffffffffffffffffffffffffffffffff82169050919050565b5f6102fd826102d4565b9050919050565b61030d816102f3565b8114610317575f5ffd5b50565b5f8151905061032881610304565b92915050565b5f819050919050565b6103408161032e565b811461034a575f5ffd5b50565b5f8151905061035b81610337565b92915050565b5f8160030b9050919050565b61037681610361565b8114610380575f5ffd5b50565b5f815190506103918161036d565b92915050565b5f5ffd5b5f5ffd5b5f601f19601f8301169050919050565b7f4e487b71000000000000000000000000000000000000000000000000000000005f52604160045260245ffd5b6103e58261039f565b810181811067ffffffffffffffff82111715610404576104036103af565b5b80604052505050565b5f6104166102c3565b905061042282826103dc565b919050565b5f67ffffffffffffffff821115610441576104406103af565b5b61044a8261039f565b9050602081019050919050565b8281835e5f83830152505050565b5f61047761047284610427565b61040d565b9050828152602081018484840111156104935761049261039b565b5b61049e848285610457565b509392505050565b5f82601f8301126104ba576104b9610397565b5b81516104ca848260208601610465565b91505092915050565b5f5f5f5f5f5f5f60e0888a0312156104ee576104ed6102cc565b5b5f6104fb8a828b0161031a565b975050602061050c8a828b0161031a565b965050604061051d8a828b0161031a565b955050606061052e8a828b0161034d565b945050608061053f8a828b0161034d565b93505060a06105508a828b01610383565b92505060c088015167ffffffffffffffff811115610571576105706102d0565b5b61057d8a828b016104a6565b91505092959891949750929550565b5f82825260208201905092915050565b7f5a45524f5f4144445200000000000000000000000000000000000000000000005f82015250565b5f6105d060098361058c565b91506105db8261059c565b602082019050919050565b5f6020820190508181035f8301526105fd816105c4565b9050919050565b7f46454500000000000000000000000000000000000000000000000000000000005f82015250565b5f61063860038361058c565b915061064382610604565b602082019050919050565b5f6020820190508181035f8301526106658161062c565b9050919050565b7f42000000000000000000000000000000000000000000000000000000000000005f82015250565b5f6106a060018361058c565b91506106ab8261066c565b602082019050919050565b5f6020820190508181035f8301526106cd81610694565b9050919050565b7f43454c4c000000000000000000000000000000000000000000000000000000005f82015250565b5f61070860048361058c565b9150610713826106d4565b602082019050919050565b5f6020820190508181035f830152610735816106fc565b9050919050565b5f81519050919050565b7f4e487b71000000000000000000000000000000000000000000000000000000005f52602260045260245ffd5b5f600282049050600182168061078a57607f821691505b60208210810361079d5761079c610746565b5b50919050565b5f819050815f5260205f209050919050565b5f6020601f8301049050919050565b5f82821b905092915050565b5f600883026107ff7fffffffffffffffffffffffffffffffffffffffffffffffffffffffffffffffff826107c4565b61080986836107c4565b95508019841693508086168417925050509392505050565b5f819050919050565b5f61084461083f61083a8461032e565b610821565b61032e565b9050919050565b5f819050919050565b61085d8361082a565b6108716108698261084b565b8484546107d0565b825550505050565b5f5f905090565b610888610879565b610893818484610854565b505050565b5b818110156108b6576108ab5f82610880565b600181019050610899565b5050565b601f8211156108fb576108cc816107a3565b6108d5846107b5565b810160208510156108e4578190505b6108f86108f0856107b5565b830182610898565b50505b505050565b5f82821c905092915050565b5f61091b5f1984600802610900565b1980831691505092915050565b5f610933838361090c565b9150826002028217905092915050565b61094c8261073c565b67ffffffffffffffff811115610965576109646103af565b5b61096f8254610773565b61097a8282856108ba565b5f60209050601f8311600181146109ab575f8415610999578287015190505b6109a38582610928565b865550610a0a565b601f1984166109b9866107a3565b5f5b828110156109e0578489015182556001820191506020850194506020810190506109bb565b868310156109fd57848901516109f9601f89168261090c565b8355505b6001600288020188555050505b505050505050565b60805160a05160c05160e0516101005161012051614ced610aad5f395f8181610b6a01528181610d8b015281816119e901528181611ad701528181612070015281816121ac015281816126af015261278201525f81816108fa015261096b01525f8181610945015261129401525f8181610b8e01526112dc01525f81816108d601528181611323015261149e01525f610f000152614ced5ff3fe6080604052600436106101cb575f3560e01c806374e9a267116100f6578063c511ed5e11610094578063eac9a7e611610063578063eac9a7e6146106c1578063ece97648146106f1578063f242432a1461072d578063ffb54a9914610755576101cb565b8063c511ed5e1461060b578063cc788bf214610621578063dfcfd3561461065d578063e985e9c514610685576101cb565b80638da5cb5b116100d05780638da5cb5b146105535780639ddec3651461057d578063a22cb465146105a7578063ae0b51df146105cf576101cb565b806374e9a267146104b1578063797c7792146104ed5780638227092014610529576101cb565b806324a9d8531161016e578063447831ab1161013d578063447831ab146103f75780634df7e3d01461042157806361d027b31461044b5780636f0649ad14610475576101cb565b806324a9d8531461032b578063257392bb1461035557806333812adc146103915780633698b861146103bb576101cb565b806309acf408116101aa57806309acf408146102715780630a671fb81461029b57806313f2dad0146102c55780631a13262c14610301576101cb565b8062fdd58e146101cf57806301ffc9a71461020b57806304f3bcec14610247575b5f5ffd5b3480156101da575f5ffd5b506101f560048036038101906101f091906137e0565b61077f565b604051610202919061382d565b60405180910390f35b348015610216575f5ffd5b50610231600480360381019061022c919061389b565b610843565b60405161023e91906138e0565b60405180910390f35b348015610252575f5ffd5b5061025b6108d4565b6040516102689190613908565b60405180910390f35b34801561027c575f5ffd5b506102856108f8565b604051610292919061393c565b60405180910390f35b3480156102a6575f5ffd5b506102af61091c565b6040516102bc919061382d565b60405180910390f35b3480156102d0575f5ffd5b506102eb60048036038101906102e69190613955565b610922565b6040516102f8919061382d565b60405180910390f35b34801561030c575f5ffd5b50610315610937565b604051610322919061382d565b60405180910390f35b348015610336575f5ffd5b5061033f610943565b60405161034c919061382d565b60405180910390f35b348015610360575f5ffd5b5061037b600480360381019061037691906139aa565b610967565b604051610388919061382d565b60405180910390f35b34801561039c575f5ffd5b506103a5610ab6565b6040516103b2919061382d565b60405180910390f35b3480156103c6575f5ffd5b506103e160048036038101906103dc9190613955565b610abc565b6040516103ee919061382d565b60405180910390f35b348015610402575f5ffd5b5061040b610adc565b6040516104189190613a58565b60405180910390f35b34801561042c575f5ffd5b50610435610b68565b604051610442919061382d565b60405180910390f35b348015610456575f5ffd5b5061045f610b8c565b60405161046c9190613908565b60405180910390f35b348015610480575f5ffd5b5061049b60048036038101906104969190613955565b610bb0565b6040516104a891906138e0565b60405180910390f35b3480156104bc575f5ffd5b506104d760048036038101906104d29190613a78565b610bcd565b6040516104e4919061382d565b60405180910390f35b3480156104f8575f5ffd5b50610513600480360381019061050e9190613955565b610d63565b604051610520919061382d565b60405180910390f35b348015610534575f5ffd5b5061053d610ef8565b60405161054a9190613ae0565b60405180910390f35b34801561055e575f5ffd5b50610567610efe565b6040516105749190613908565b60405180910390f35b348015610588575f5ffd5b50610591610f22565b60405161059e919061382d565b60405180910390f35b3480156105b2575f5ffd5b506105cd60048036038101906105c89190613b23565b610f28565b005b3480156105da575f5ffd5b506105f560048036038101906105f09190613bc2565b611020565b604051610602919061382d565b60405180910390f35b348015610616575f5ffd5b5061061f611321565b005b34801561062c575f5ffd5b5061064760048036038101906106429190613c33565b611447565b604051610654919061382d565b60405180910390f35b348015610668575f5ffd5b50610683600480360381019061067e9190613c9b565b61149c565b005b348015610690575f5ffd5b506106ab60048036038101906106a69190613cd9565b611601565b6040516106b891906138e0565b60405180910390f35b6106db60048036038101906106d69190613a78565b61168f565b6040516106e8919061382d565b60405180910390f35b3480156106fc575f5ffd5b5061071760048036038101906107129190613c33565b611881565b604051610724919061382d565b60405180910390f35b348015610738575f5ffd5b50610753600480360381019061074e9190613d6c565b61192f565b005b348015610760575f5ffd5b506107696119c4565b604051610776919061382d565b60405180910390f35b5f5f73ffffffffffffffffffffffffffffffffffffffff168373ffffffffffffffffffffffffffffffffffffffff16036107ee576040517f08c379a00000000000000000000000000000000000000000000000000000000081526004016107e590613e4c565b60405180910390fd5b60015f8381526020019081526020015f205f8473ffffffffffffffffffffffffffffffffffffffff1673ffffffffffffffffffffffffffffffffffffffff1681526020019081526020015f2054905092915050565b5f6301ffc9a760e01b827bffffffffffffffffffffffffffffffffffffffffffffffffffffffff1916148061089d575063d9b67a2660e01b827bffffffffffffffffffffffffffffffffffffffffffffffffffffffff1916145b806108cd5750630e89341c60e01b827bffffffffffffffffffffffffffffffffffffffffffffffffffffffff1916145b9050919050565b7f000000000000000000000000000000000000000000000000000000000000000081565b7f000000000000000000000000000000000000000000000000000000000000000081565b60055481565b6007602052805f5260405f205f915090505481565b5f600880549050905090565b7f000000000000000000000000000000000000000000000000000000000000000081565b5f5f7f000000000000000000000000000000000000000000000000000000000000000090505f63055d4a808560030b6109a09190613ea3565b90505f630aba95008560030b6109b69190613ea3565b90505f8260070b121580156109d25750630aba95008260070b13155b610a11576040517f08c379a0000000000000000000000000000000000000000000000000000000008152600401610a0890613f4c565b60405180910390fd5b5f8160070b12158015610a2b57506315752a008160070b13155b610a6a576040517f08c379a0000000000000000000000000000000000000000000000000000000008152600401610a6190613fb4565b60405180910390fd5b5f8360030b83610a7a9190613fff565b90505f8460030b83610a8c9190613fff565b90508067ffffffffffffffff1660408367ffffffffffffffff16901b179550505050505092915050565b600b5481565b60088181548110610acb575f80fd5b905f5260205f20015f915090505481565b60038054610ae990614094565b80601f0160208091040260200160405190810160405280929190818152602001828054610b1590614094565b8015610b605780601f10610b3757610100808354040283529160200191610b60565b820191905f5260205f20905b815481529060010190602001808311610b4357829003601f168201915b505050505081565b7f000000000000000000000000000000000000000000000000000000000000000081565b7f000000000000000000000000000000000000000000000000000000000000000081565b6009602052805f5260405f205f915054906101000a900460ff1681565b5f60025f5403610c12576040517f08c379a0000000000000000000000000000000000000000000000000000000008152600401610c099061410e565b60405180910390fd5b60025f819055505f60055414610c54576040517fe2c865df00000000000000000000000000000000000000000000000000000000815260040160405180910390fd5b5f8311610c96576040517f08c379a0000000000000000000000000000000000000000000000000000000008152600401610c8d90614176565b60405180910390fd5b610ca084846119ca565b905081811015610ce5576040517f08c379a0000000000000000000000000000000000000000000000000000000008152600401610cdc906141de565b60405180910390fd5b610cf0338585611b49565b610cfa8484611cb3565b610d043382611d28565b833373ffffffffffffffffffffffffffffffffffffffff167f846c37eef631e0943682d87352ec117c20008eb7f425c9b85ac011a6d4774cc08584604051610d4d9291906141fc565b60405180910390a360015f819055509392505050565b5f5f60088054905003610d78575f9050610ef3565b5f610db4610d866001611e23565b610daf7f0000000000000000000000000000000000000000000000000000000000000000611e23565b611e46565b90505f5f90505f5f90505b600880549050811015610e4b575f60088281548110610de157610de0614223565b5b905f5260205f20015490505f610e10610e0a60075f8581526020019081526020015f2054611e23565b86611ec6565b90505f610e1c82611f38565b90505f85600f0b14610e3757610e328582611fcd565b610e39565b805b94505050508080600101915050610dbf565b505f610e78610e73610e6d60075f8981526020019081526020015f2054611e23565b85611ec6565b611f38565b90505f610e858284611e46565b90505f816fffffffffffffffffffffffffffffffff1690505f604082901c90505f67ffffffffffffffff831690506040670de0b6b3a764000082610ec99190614250565b901c670de0b6b3a764000083610edf9190614250565b610ee99190614291565b9750505050505050505b919050565b600a5481565b7f000000000000000000000000000000000000000000000000000000000000000081565b60065481565b8060025f3373ffffffffffffffffffffffffffffffffffffffff1673ffffffffffffffffffffffffffffffffffffffff1681526020019081526020015f205f8473ffffffffffffffffffffffffffffffffffffffff1673ffffffffffffffffffffffffffffffffffffffff1681526020019081526020015f205f6101000a81548160ff0219169083151502179055508173ffffffffffffffffffffffffffffffffffffffff163373ffffffffffffffffffffffffffffffffffffffff167f17307eab39ab6107e8899845ad3d59bd9653f200f220920489ca2b5937696c318360405161101491906138e0565b60405180910390a35050565b5f60025f5403611065576040517f08c379a000000000000000000000000000000000000000000000000000000000815260040161105c9061410e565b60405180910390fd5b60025f819055505f6006541415801561108057506006544210155b6110bf576040517f08c379a00000000000000000000000000000000000000000000000000000000081526004016110b69061430e565b60405180910390fd5b5f600a5490505f5f1b81141580156110d857505f600b54115b611117576040517f08c379a000000000000000000000000000000000000000000000000000000000815260040161110e90614376565b60405180910390fd5b5f60015f8881526020019081526020015f205f3373ffffffffffffffffffffffffffffffffffffffff1673ffffffffffffffffffffffffffffffffffffffff1681526020019081526020015f205490505f81116111a9576040517f08c379a00000000000000000000000000000000000000000000000000000000081526004016111a0906143de565b60405180910390fd5b5f87876040516020016111bd9291906141fc565b6040516020818303038152906040528051906020012090506112208686808060200260200160405190810160405280939291908181526020018383602002808284375f81840152601f19601f82011690508083019250505050505050848361203b565b61125f576040517f08c379a000000000000000000000000000000000000000000000000000000000815260040161125690614446565b60405180910390fd5b61126a338984611b49565b5f600b54888461127a9190614250565b6112849190614464565b90505f81111561130e575f6127107f0000000000000000000000000000000000000000000000000000000000000000836112be9190614250565b6112c89190614464565b905080820395505f811115611302576113017f000000000000000000000000000000000000000000000000000000000000000082611d28565b5b61130c3387611d28565b505b5050505060015f81905550949350505050565b7f000000000000000000000000000000000000000000000000000000000000000073ffffffffffffffffffffffffffffffffffffffff163373ffffffffffffffffffffffffffffffffffffffff16146113a6576040517fba2a9fc200000000000000000000000000000000000000000000000000000000815260040160405180910390fd5b5f600554146113ea576040517f08c379a00000000000000000000000000000000000000000000000000000000081526004016113e1906144de565b60405180910390fd5b4260058190555062093a806005546114029190614291565b6006819055507f6f85eafd2ee4262990a69612967f8e54126f2343a62867dc87f5821eebb35ae360055460065460405161143d9291906141fc565b60405180910390a1565b5f5f821161148a576040517f08c379a000000000000000000000000000000000000000000000000000000000815260040161148190614176565b60405180910390fd5b6114948383612051565b905092915050565b7f000000000000000000000000000000000000000000000000000000000000000073ffffffffffffffffffffffffffffffffffffffff163373ffffffffffffffffffffffffffffffffffffffff1614611521576040517fba2a9fc200000000000000000000000000000000000000000000000000000000815260040160405180910390fd5b5f6005541415801561153557506005544210155b611574576040517f08c379a000000000000000000000000000000000000000000000000000000000815260040161156b90614546565b60405180910390fd5b5f81116115b6576040517f08c379a00000000000000000000000000000000000000000000000000000000081526004016115ad906145ae565b60405180910390fd5b81600a8190555080600b819055507fba338cf2d2f979bacbfc5a51de4bab83ea916e9e13371a98683c0b190ce9a95e82826040516115f59291906145cc565b60405180910390a15050565b5f60025f8473ffffffffffffffffffffffffffffffffffffffff1673ffffffffffffffffffffffffffffffffffffffff1681526020019081526020015f205f8373ffffffffffffffffffffffffffffffffffffffff1673ffffffffffffffffffffffffffffffffffffffff1681526020019081526020015f205f9054906101000a900460ff16905092915050565b5f60025f54036116d4576040517f08c379a00000000000000000000000000000000000000000000000000000000081526004016116cb9061410e565b60405180910390fd5b60025f819055505f60055414611716576040517fe2c865df00000000000000000000000000000000000000000000000000000000815260040160405180910390fd5b5f8311611758576040517f08c379a000000000000000000000000000000000000000000000000000000000815260040161174f90614176565b60405180910390fd5b6117628484612051565b9050818111156117a7576040517f08c379a000000000000000000000000000000000000000000000000000000000815260040161179e906141de565b60405180910390fd5b803410156117ea576040517f08c379a00000000000000000000000000000000000000000000000000000000081526004016117e19061463d565b60405180910390fd5b5f81346117f7919061465b565b90505f81111561180c5761180b3382611d28565b5b611816858561224b565b6118213386866122e8565b843373ffffffffffffffffffffffffffffffffffffffff167fbeae048c6d270d9469f86cf6e8fedda3c60ad770f16c24c9fc131c8e9a09101d868560405161186a9291906141fc565b60405180910390a35060015f819055509392505050565b5f5f82116118c4576040517f08c379a00000000000000000000000000000000000000000000000000000000081526004016118bb90614176565b60405180910390fd5b5f60075f8581526020019081526020015f205490508281101561191c576040517f08c379a0000000000000000000000000000000000000000000000000000000008152600401611913906146d8565b60405180910390fd5b61192684846119ca565b91505092915050565b3373ffffffffffffffffffffffffffffffffffffffff168673ffffffffffffffffffffffffffffffffffffffff16148061196f575061196e8633611601565b5b6119ae576040517f08c379a00000000000000000000000000000000000000000000000000000000081526004016119a590614740565b60405180910390fd5b6119bc86868686868661243b565b505050505050565b60045481565b5f5f6119d4612687565b90505f611a126119e46001611e23565b611a0d7f0000000000000000000000000000000000000000000000000000000000000000611e23565b611e46565b90505f5f90505f5f90505b600880549050811015611ac4575f60088281548110611a3f57611a3e614223565b5b905f5260205f20015490505f60075f8381526020019081526020015f20549050888203611a75578781611a72919061465b565b90505b5f611a88611a8283611e23565b87611ec6565b90505f611a9482611f38565b90505f86600f0b14611aaf57611aaa8682611fcd565b611ab1565b805b9550505050508080600101915050611a1d565b505f611acf8261280d565b90505f611afb7f0000000000000000000000000000000000000000000000000000000000000000611e23565b90505f611b088284611ec6565b90505f816fffffffffffffffffffffffffffffffff1690505f604082901c90505f8190508089611b38919061465b565b995050505050505050505092915050565b5f60015f8481526020019081526020015f205f8573ffffffffffffffffffffffffffffffffffffffff1673ffffffffffffffffffffffffffffffffffffffff1681526020019081526020015f2054905081811015611bdc576040517f08c379a0000000000000000000000000000000000000000000000000000000008152600401611bd3906147a8565b60405180910390fd5b81810360015f8581526020019081526020015f205f8673ffffffffffffffffffffffffffffffffffffffff1673ffffffffffffffffffffffffffffffffffffffff1681526020019081526020015f20819055505f73ffffffffffffffffffffffffffffffffffffffff168473ffffffffffffffffffffffffffffffffffffffff163373ffffffffffffffffffffffffffffffffffffffff167fc3d58168c5ae7397731d063d5bbf3d657854427343f4c083240f7aacaa2d0f628686604051611ca59291906141fc565b60405180910390a450505050565b5f60075f8481526020019081526020015f2054905081811015611d0b576040517f08c379a0000000000000000000000000000000000000000000000000000000008152600401611d02906146d8565b60405180910390fd5b81810360075f8581526020019081526020015f2081905550505050565b5f8273ffffffffffffffffffffffffffffffffffffffff16825f67ffffffffffffffff811115611d5b57611d5a6147c6565b5b6040519080825280601f01601f191660200182016040528015611d8d5781602001600182028036833780820191505090505b50604051611d9b9190614837565b5f6040518083038185875af1925050503d805f8114611dd5576040519150601f19603f3d011682016040523d82523d5f602084013e611dda565b606091505b5050905080611e1e576040517f08c379a0000000000000000000000000000000000000000000000000000000008152600401611e1590614897565b60405180910390fd5b505050565b5f67ffffffffffffffff8016821115611e3a575f5ffd5b604082901b9050919050565b5f5f82600f0b03611e55575f5ffd5b5f82600f0b604085600f0b901b611e6c91906148be565b90507fffffffffffffffffffffffffffffffff80000000000000000000000000000000600f0b8112158015611eb457506f7fffffffffffffffffffffffffffffff600f0b8113155b611ebc575f5ffd5b8091505092915050565b5f5f604083600f0b85600f0b611edc9190614926565b901d90507fffffffffffffffffffffffffffffffff80000000000000000000000000000000600f0b8112158015611f2657506f7fffffffffffffffffffffffffffffff600f0b8113155b611f2e575f5ffd5b8091505092915050565b5f5f82600f0b03611f5457680100000000000000009050611fc8565b7fffffffffffffffffffffffffffffffffc000000000000000000000000000000082600f0b1215611f87575f9050611fc8565b6f4000000000000000000000000000000082600f0b1315611fa6575f5ffd5b5f611fc1611fbc8467b17217f7d1cf79ab611e46565b61283d565b9050809150505b919050565b5f5f82600f0b84600f0b611fe1919061499c565b90507fffffffffffffffffffffffffffffffff80000000000000000000000000000000600f0b811215801561202957506f7fffffffffffffffffffffffffffffff600f0b8113155b612031575f5ffd5b8091505092915050565b5f82612047858461335e565b1490509392505050565b5f5f61205b612687565b90505f61209961206b6001611e23565b6120947f0000000000000000000000000000000000000000000000000000000000000000611e23565b611e46565b90505f5f90505f5f90505f5f90505b600880549050811015612153575f600882815481106120ca576120c9614223565b5b905f5260205f20015490505f60075f8381526020019081526020015f205490508982036121045788816120fd9190614291565b9050600193505b5f61211761211183611e23565b88611ec6565b90505f61212382611f38565b90505f87600f0b1461213e576121398782611fcd565b612140565b805b96505050505080806001019150506120a8565b508061219a575f61216c61216688611e23565b85611ec6565b90505f61217882611f38565b90505f84600f0b146121935761218e8482611fcd565b612195565b805b935050505b5f6121a48361280d565b90505f6121d07f0000000000000000000000000000000000000000000000000000000000000000611e23565b90505f6121dd8284611ec6565b90505f816fffffffffffffffffffffffffffffffff1690505f604082901c90505f67ffffffffffffffff831690505f5f8211612219575f61221c565b60015b60ff168361222a9190614291565b90508a81612238919061465b565b9b50505050505050505050505092915050565b60095f8381526020019081526020015f205f9054906101000a900460ff166122bd57600160095f8481526020019081526020015f205f6101000a81548160ff021916908315150217905550600882908060018154018082558091505060019003905f5260205f20015f90919091909150555b8060075f8481526020019081526020015f205f8282546122dd9190614291565b925050819055505050565b5f73ffffffffffffffffffffffffffffffffffffffff168373ffffffffffffffffffffffffffffffffffffffff1603612356576040517f08c379a000000000000000000000000000000000000000000000000000000000815260040161234d90614a27565b60405180910390fd5b8060015f8481526020019081526020015f205f8573ffffffffffffffffffffffffffffffffffffffff1673ffffffffffffffffffffffffffffffffffffffff1681526020019081526020015f205f8282546123b19190614291565b925050819055508273ffffffffffffffffffffffffffffffffffffffff165f73ffffffffffffffffffffffffffffffffffffffff163373ffffffffffffffffffffffffffffffffffffffff167fc3d58168c5ae7397731d063d5bbf3d657854427343f4c083240f7aacaa2d0f62858560405161242e9291906141fc565b60405180910390a4505050565b5f73ffffffffffffffffffffffffffffffffffffffff168573ffffffffffffffffffffffffffffffffffffffff16036124a9576040517f08c379a00000000000000000000000000000000000000000000000000000000081526004016124a090614a27565b60405180910390fd5b5f60015f8681526020019081526020015f205f8873ffffffffffffffffffffffffffffffffffffffff1673ffffffffffffffffffffffffffffffffffffffff1681526020019081526020015f205490508381101561253c576040517f08c379a0000000000000000000000000000000000000000000000000000000008152600401612533906147a8565b60405180910390fd5b83810360015f8781526020019081526020015f205f8973ffffffffffffffffffffffffffffffffffffffff1673ffffffffffffffffffffffffffffffffffffffff1681526020019081526020015f20819055508360015f8781526020019081526020015f205f8873ffffffffffffffffffffffffffffffffffffffff1673ffffffffffffffffffffffffffffffffffffffff1681526020019081526020015f205f8282546125ea9190614291565b925050819055508573ffffffffffffffffffffffffffffffffffffffff168773ffffffffffffffffffffffffffffffffffffffff163373ffffffffffffffffffffffffffffffffffffffff167fc3d58168c5ae7397731d063d5bbf3d657854427343f4c083240f7aacaa2d0f6288886040516126679291906141fc565b60405180910390a461267e33888888888888613406565b50505050505050565b5f5f6008805490500361269c575f905061280a565b5f6126d86126aa6001611e23565b6126d37f0000000000000000000000000000000000000000000000000000000000000000611e23565b611e46565b90505f5f90505f5f90505b60088054905081101561276f575f6008828154811061270557612704614223565b5b905f5260205f20015490505f61273461272e60075f8581526020019081526020015f2054611e23565b86611ec6565b90505f61274082611f38565b90505f85600f0b1461275b576127568582611fcd565b61275d565b805b945050505080806001019150506126e3565b505f61277a8261280d565b90505f6127a67f0000000000000000000000000000000000000000000000000000000000000000611e23565b90505f6127b38284611ec6565b90505f816fffffffffffffffffffffffffffffffff1690505f604082901c90505f67ffffffffffffffff831690505f81116127ee575f6127f1565b60015b60ff16826127ff9190614291565b985050505050505050505b90565b5f5f82600f0b1361281c575f5ffd5b612836612828836135c1565b67b17217f7d1cf79ab611ec6565b9050919050565b5f6840000000000000000082600f0b12612855575f5ffd5b7fffffffffffffffffffffffffffffffffffffffffffffffc0000000000000000082600f0b1215612888575f9050613359565b5f6f8000000000000000000000000000000090505f6780000000000000008416600f0b13156128cd57604068016a09e667f3bcc909826128c89190614250565b901c90505b5f6740000000000000008416600f0b13156128fe5760406801306fe0a31b7152df826128f99190614250565b901c90505b5f6720000000000000008416600f0b131561292f5760406801172b83c7d517adce8261292a9190614250565b901c90505b5f6710000000000000008416600f0b131561296057604068010b5586cf9890f62a8261295b9190614250565b901c90505b5f6708000000000000008416600f0b13156129915760406801059b0d31585743ae8261298c9190614250565b901c90505b5f6704000000000000008416600f0b13156129c2576040680102c9a3e778060ee7826129bd9190614250565b901c90505b5f6702000000000000008416600f0b13156129f357604068010163da9fb33356d8826129ee9190614250565b901c90505b5f6701000000000000008416600f0b1315612a24576040680100b1afa5abcbed6182612a1f9190614250565b901c90505b5f66800000000000008416600f0b1315612a5457604068010058c86da1c09ea282612a4f9190614250565b901c90505b5f66400000000000008416600f0b1315612a845760406801002c605e2e8cec5082612a7f9190614250565b901c90505b5f66200000000000008416600f0b1315612ab4576040680100162f3904051fa182612aaf9190614250565b901c90505b5f66100000000000008416600f0b1315612ae45760406801000b175effdc76ba82612adf9190614250565b901c90505b5f66080000000000008416600f0b1315612b14576040680100058ba01fb9f96d82612b0f9190614250565b901c90505b5f66040000000000008416600f0b1315612b4457604068010002c5cc37da949282612b3f9190614250565b901c90505b5f66020000000000008416600f0b1315612b745760406801000162e525ee054782612b6f9190614250565b901c90505b5f66010000000000008416600f0b1315612ba457604068010000b17255775c0482612b9f9190614250565b901c90505b5f658000000000008416600f0b1315612bd35760406801000058b91b5bc9ae82612bce9190614250565b901c90505b5f654000000000008416600f0b1315612c02576040680100002c5c89d5ec6d82612bfd9190614250565b901c90505b5f652000000000008416600f0b1315612c3157604068010000162e43f4f83182612c2c9190614250565b901c90505b5f651000000000008416600f0b1315612c60576040680100000b1721bcfc9a82612c5b9190614250565b901c90505b5f650800000000008416600f0b1315612c8f57604068010000058b90cf1e6e82612c8a9190614250565b901c90505b5f650400000000008416600f0b1315612cbe5760406801000002c5c863b73f82612cb99190614250565b901c90505b5f650200000000008416600f0b1315612ced576040680100000162e430e5a282612ce89190614250565b901c90505b5f650100000000008416600f0b1315612d1c5760406801000000b17218355182612d179190614250565b901c90505b5f6480000000008416600f0b1315612d4a576040680100000058b90c0b4982612d459190614250565b901c90505b5f6440000000008416600f0b1315612d7857604068010000002c5c8601cc82612d739190614250565b901c90505b5f6420000000008416600f0b1315612da65760406801000000162e42fff082612da19190614250565b901c90505b5f6410000000008416600f0b1315612dd457604068010000000b17217fba82612dcf9190614250565b901c90505b5f6408000000008416600f0b1315612e025760406801000000058b90bfce82612dfd9190614250565b901c90505b5f6404000000008416600f0b1315612e30576040680100000002c5c85fe382612e2b9190614250565b901c90505b5f6402000000008416600f0b1315612e5e57604068010000000162e42ff182612e599190614250565b901c90505b5f6401000000008416600f0b1315612e8c576040680100000000b17217f882612e879190614250565b901c90505b5f63800000008416600f0b1315612eb957604068010000000058b90bfc82612eb49190614250565b901c90505b5f63400000008416600f0b1315612ee65760406801000000002c5c85fe82612ee19190614250565b901c90505b5f63200000008416600f0b1315612f13576040680100000000162e42ff82612f0e9190614250565b901c90505b5f63100000008416600f0b1315612f405760406801000000000b17217f82612f3b9190614250565b901c90505b5f63080000008416600f0b1315612f6d576040680100000000058b90c082612f689190614250565b901c90505b5f63040000008416600f0b1315612f9a57604068010000000002c5c86082612f959190614250565b901c90505b5f63020000008416600f0b1315612fc75760406801000000000162e43082612fc29190614250565b901c90505b5f63010000008416600f0b1315612ff457604068010000000000b1721882612fef9190614250565b901c90505b5f628000008416600f0b131561301f576040671000000000058b908261301a9190614250565b901c90505b5f624000008416600f0b131561304a57604067100000000002c5c8826130459190614250565b901c90505b5f622000008416600f0b13156130755760406710000000000162e4826130709190614250565b901c90505b5f621000008416600f0b13156130a057604067100000000000b1728261309b9190614250565b901c90505b5f620800008416600f0b13156130cb5760406710000000000058b9826130c69190614250565b901c90505b5f620400008416600f0b13156130f6576040671000000000002c5c826130f19190614250565b901c90505b5f620200008416600f0b131561312157604067100000000000162e8261311c9190614250565b901c90505b5f620100008416600f0b131561314c576040671000000000000b17826131479190614250565b901c90505b5f6180008416600f0b131561317657604067100000000000058c826131719190614250565b901c90505b5f6140008416600f0b13156131a05760406710000000000002c68261319b9190614250565b901c90505b5f6120008416600f0b13156131ca576040671000000000000163826131c59190614250565b901c90505b5f6110008416600f0b13156131f45760406710000000000000b1826131ef9190614250565b901c90505b5f6108008416600f0b131561321e576040671000000000000058826132199190614250565b901c90505b5f6104008416600f0b131561324857604067100000000000002c826132439190614250565b901c90505b5f6102008416600f0b13156132725760406710000000000000168261326d9190614250565b901c90505b5f6101008416600f0b131561329c57604067100000000000000b826132979190614250565b901c90505b5f60808416600f0b13156132c5576040671000000000000006826132c09190614250565b901c90505b5f60408416600f0b13156132ee576040671000000000000003826132e99190614250565b901c90505b5f60208416600f0b1315613317576040671000000000000001826133129190614250565b901c90505b5f604084600f0b901d600f0b9050603f8112613331575f5ffd5b5f8112613343578082901b9150613353565b8061334d90614a45565b82901c91505b81925050505b919050565b5f8190505f5f90505b83518110156133ff575f84828151811061338457613383614223565b5b602002602001015190508083116133c55782816040516020016133a8929190614aab565b6040516020818303038152906040528051906020012092506133f1565b80836040516020016133d8929190614aab565b6040516020818303038152906040528051906020012092505b508080600101915050613367565b5092915050565b5f8573ffffffffffffffffffffffffffffffffffffffff163b11156135b8575f5f8673ffffffffffffffffffffffffffffffffffffffff1663f23a6e6160e01b8a8a8989898960405160240161346196959493929190614b20565b604051602081830303815290604052907bffffffffffffffffffffffffffffffffffffffffffffffffffffffff19166020820180517bffffffffffffffffffffffffffffffffffffffffffffffffffffffff83818316178352505050506040516134cb9190614837565b5f604051808303815f865af19150503d805f8114613504576040519150601f19603f3d011682016040523d82523d5f602084013e613509565b606091505b509150915081801561351d57506004815110155b8015613576575063f23a6e6160e01b7bffffffffffffffffffffffffffffffffffffffffffffffffffffffff19168161355590614ba9565b7bffffffffffffffffffffffffffffffffffffffffffffffffffffffff1916145b6135b5576040517f08c379a00000000000000000000000000000000000000000000000000000000081526004016135ac90614c59565b60405180910390fd5b50505b50505050505050565b5f5f82600f0b136135d0575f5ffd5b5f5f90505f83600f0b905068010000000000000000811261360257604081901d90506040826135ff919061499c565b91505b640100000000811261362557602081901d9050602082613622919061499c565b91505b62010000811261364657601081901d9050601082613643919061499c565b91505b610100811261366657600881901d9050600882613663919061499c565b91505b6010811261368557600481901d9050600482613682919061499c565b91505b600481126136a457600281901d90506002826136a1919061499c565b91505b600281126136bc576001826136b9919061499c565b91505b5f604080846136cb9190614c77565b901b90505f83607f6136dd9190614c77565b86600f0b901b90505f5f90505b604081121561373e57607f82836137019190614250565b901c91505f607f83901c90508083901c925081603f613720919061465b565b81901b8461372e919061499c565b93505080806001019150506136ea565b5081945050505050919050565b5f5ffd5b5f5ffd5b5f73ffffffffffffffffffffffffffffffffffffffff82169050919050565b5f61377c82613753565b9050919050565b61378c81613772565b8114613796575f5ffd5b50565b5f813590506137a781613783565b92915050565b5f819050919050565b6137bf816137ad565b81146137c9575f5ffd5b50565b5f813590506137da816137b6565b92915050565b5f5f604083850312156137f6576137f561374b565b5b5f61380385828601613799565b9250506020613814858286016137cc565b9150509250929050565b613827816137ad565b82525050565b5f6020820190506138405f83018461381e565b92915050565b5f7fffffffff0000000000000000000000000000000000000000000000000000000082169050919050565b61387a81613846565b8114613884575f5ffd5b50565b5f8135905061389581613871565b92915050565b5f602082840312156138b0576138af61374b565b5b5f6138bd84828501613887565b91505092915050565b5f8115159050919050565b6138da816138c6565b82525050565b5f6020820190506138f35f8301846138d1565b92915050565b61390281613772565b82525050565b5f60208201905061391b5f8301846138f9565b92915050565b5f8160030b9050919050565b61393681613921565b82525050565b5f60208201905061394f5f83018461392d565b92915050565b5f6020828403121561396a5761396961374b565b5b5f613977848285016137cc565b91505092915050565b61398981613921565b8114613993575f5ffd5b50565b5f813590506139a481613980565b92915050565b5f5f604083850312156139c0576139bf61374b565b5b5f6139cd85828601613996565b92505060206139de85828601613996565b9150509250929050565b5f81519050919050565b5f82825260208201905092915050565b8281835e5f83830152505050565b5f601f19601f8301169050919050565b5f613a2a826139e8565b613a3481856139f2565b9350613a44818560208601613a02565b613a4d81613a10565b840191505092915050565b5f6020820190508181035f830152613a708184613a20565b905092915050565b5f5f5f60608486031215613a8f57613a8e61374b565b5b5f613a9c868287016137cc565b9350506020613aad868287016137cc565b9250506040613abe868287016137cc565b9150509250925092565b5f819050919050565b613ada81613ac8565b82525050565b5f602082019050613af35f830184613ad1565b92915050565b613b02816138c6565b8114613b0c575f5ffd5b50565b5f81359050613b1d81613af9565b92915050565b5f5f60408385031215613b3957613b3861374b565b5b5f613b4685828601613799565b9250506020613b5785828601613b0f565b9150509250929050565b5f5ffd5b5f5ffd5b5f5ffd5b5f5f83601f840112613b8257613b81613b61565b5b8235905067ffffffffffffffff811115613b9f57613b9e613b65565b5b602083019150836020820283011115613bbb57613bba613b69565b5b9250929050565b5f5f5f5f60608587031215613bda57613bd961374b565b5b5f613be7878288016137cc565b9450506020613bf8878288016137cc565b935050604085013567ffffffffffffffff811115613c1957613c1861374f565b5b613c2587828801613b6d565b925092505092959194509250565b5f5f60408385031215613c4957613c4861374b565b5b5f613c56858286016137cc565b9250506020613c67858286016137cc565b9150509250929050565b613c7a81613ac8565b8114613c84575f5ffd5b50565b5f81359050613c9581613c71565b92915050565b5f5f60408385031215613cb157613cb061374b565b5b5f613cbe85828601613c87565b9250506020613ccf858286016137cc565b9150509250929050565b5f5f60408385031215613cef57613cee61374b565b5b5f613cfc85828601613799565b9250506020613d0d85828601613799565b9150509250929050565b5f5f83601f840112613d2c57613d2b613b61565b5b8235905067ffffffffffffffff811115613d4957613d48613b65565b5b602083019150836001820283011115613d6557613d64613b69565b5b9250929050565b5f5f5f5f5f5f60a08789031215613d8657613d8561374b565b5b5f613d9389828a01613799565b9650506020613da489828a01613799565b9550506040613db589828a016137cc565b9450506060613dc689828a016137cc565b935050608087013567ffffffffffffffff811115613de757613de661374f565b5b613df389828a01613d17565b92509250509295509295509295565b7f5a45524f5f4144445200000000000000000000000000000000000000000000005f82015250565b5f613e366009836139f2565b9150613e4182613e02565b602082019050919050565b5f6020820190508181035f830152613e6381613e2a565b9050919050565b5f8160070b9050919050565b7f4e487b71000000000000000000000000000000000000000000000000000000005f52601160045260245ffd5b5f613ead82613e6a565b9150613eb883613e6a565b925082820190507fffffffffffffffffffffffffffffffffffffffffffffffff80000000000000008112677fffffffffffffff82131715613efc57613efb613e76565b5b92915050565b7f4c415400000000000000000000000000000000000000000000000000000000005f82015250565b5f613f366003836139f2565b9150613f4182613f02565b602082019050919050565b5f6020820190508181035f830152613f6381613f2a565b9050919050565b7f4c4f4e00000000000000000000000000000000000000000000000000000000005f82015250565b5f613f9e6003836139f2565b9150613fa982613f6a565b602082019050919050565b5f6020820190508181035f830152613fcb81613f92565b9050919050565b7f4e487b71000000000000000000000000000000000000000000000000000000005f52601260045260245ffd5b5f61400982613e6a565b915061401483613e6a565b92508261402457614023613fd2565b5b60015f0383147fffffffffffffffffffffffffffffffffffffffffffffffff80000000000000008314161561405c5761405b613e76565b5b828205905092915050565b7f4e487b71000000000000000000000000000000000000000000000000000000005f52602260045260245ffd5b5f60028204905060018216806140ab57607f821691505b6020821081036140be576140bd614067565b5b50919050565b7f5245454e5452414e4359000000000000000000000000000000000000000000005f82015250565b5f6140f8600a836139f2565b9150614103826140c4565b602082019050919050565b5f6020820190508181035f830152614125816140ec565b9050919050565b7f53484152455300000000000000000000000000000000000000000000000000005f82015250565b5f6141606006836139f2565b915061416b8261412c565b602082019050919050565b5f6020820190508181035f83015261418d81614154565b9050919050565b7f534c4950504147450000000000000000000000000000000000000000000000005f82015250565b5f6141c86008836139f2565b91506141d382614194565b602082019050919050565b5f6020820190508181035f8301526141f5816141bc565b9050919050565b5f60408201905061420f5f83018561381e565b61421c602083018461381e565b9392505050565b7f4e487b71000000000000000000000000000000000000000000000000000000005f52603260045260245ffd5b5f61425a826137ad565b9150614265836137ad565b9250828202614273816137ad565b9150828204841483151761428a57614289613e76565b5b5092915050565b5f61429b826137ad565b91506142a6836137ad565b92508282019050808211156142be576142bd613e76565b5b92915050565b7f44495350555445000000000000000000000000000000000000000000000000005f82015250565b5f6142f86007836139f2565b9150614303826142c4565b602082019050919050565b5f6020820190508181035f830152614325816142ec565b9050919050565b7f4e4f5f52455300000000000000000000000000000000000000000000000000005f82015250565b5f6143606006836139f2565b915061436b8261432c565b602082019050919050565b5f6020820190508181035f83015261438d81614354565b9050919050565b7f4e4f5f42414c00000000000000000000000000000000000000000000000000005f82015250565b5f6143c86006836139f2565b91506143d382614394565b602082019050919050565b5f6020820190508181035f8301526143f5816143bc565b9050919050565b7f4241445f50524f4f4600000000000000000000000000000000000000000000005f82015250565b5f6144306009836139f2565b915061443b826143fc565b602082019050919050565b5f6020820190508181035f83015261445d81614424565b9050919050565b5f61446e826137ad565b9150614479836137ad565b92508261448957614488613fd2565b5b828204905092915050565b7f414c52454144595f434c4f5345440000000000000000000000000000000000005f82015250565b5f6144c8600e836139f2565b91506144d382614494565b602082019050919050565b5f6020820190508181035f8301526144f5816144bc565b9050919050565b7f4e4f545f434c4f534544000000000000000000000000000000000000000000005f82015250565b5f614530600a836139f2565b915061453b826144fc565b602082019050919050565b5f6020820190508181035f83015261455d81614524565b9050919050565b7f44454e00000000000000000000000000000000000000000000000000000000005f82015250565b5f6145986003836139f2565b91506145a382614564565b602082019050919050565b5f6020820190508181035f8301526145c58161458c565b9050919050565b5f6040820190506145df5f830185613ad1565b6145ec602083018461381e565b9392505050565b7f56414c55450000000000000000000000000000000000000000000000000000005f82015250565b5f6146276005836139f2565b9150614632826145f3565b602082019050919050565b5f6020820190508181035f8301526146548161461b565b9050919050565b5f614665826137ad565b9150614670836137ad565b925082820390508181111561468857614687613e76565b5b92915050565b7f51000000000000000000000000000000000000000000000000000000000000005f82015250565b5f6146c26001836139f2565b91506146cd8261468e565b602082019050919050565b5f6020820190508181035f8301526146ef816146b6565b9050919050565b7f4e4f545f415554480000000000000000000000000000000000000000000000005f82015250565b5f61472a6008836139f2565b9150614735826146f6565b602082019050919050565b5f6020820190508181035f8301526147578161471e565b9050919050565b7f42414c00000000000000000000000000000000000000000000000000000000005f82015250565b5f6147926003836139f2565b915061479d8261475e565b602082019050919050565b5f6020820190508181035f8301526147bf81614786565b9050919050565b7f4e487b71000000000000000000000000000000000000000000000000000000005f52604160045260245ffd5b5f81519050919050565b5f81905092915050565b5f614811826147f3565b61481b81856147fd565b935061482b818560208601613a02565b80840191505092915050565b5f6148428284614807565b915081905092915050565b7f4554485f5452414e534645525f4641494c0000000000000000000000000000005f82015250565b5f6148816011836139f2565b915061488c8261484d565b602082019050919050565b5f6020820190508181035f8301526148ae81614875565b9050919050565b5f819050919050565b5f6148c8826148b5565b91506148d3836148b5565b9250826148e3576148e2613fd2565b5b60015f0383147f80000000000000000000000000000000000000000000000000000000000000008314161561491b5761491a613e76565b5b828205905092915050565b5f614930826148b5565b915061493b836148b5565b9250828202614949816148b5565b91507f800000000000000000000000000000000000000000000000000000000000000084145f841216156149805761497f613e76565b5b828205841483151761499557614994613e76565b5b5092915050565b5f6149a6826148b5565b91506149b1836148b5565b92508282019050828112155f8312168382125f8412151617156149d7576149d6613e76565b5b92915050565b7f5a45524f5f544f000000000000000000000000000000000000000000000000005f82015250565b5f614a116007836139f2565b9150614a1c826149dd565b602082019050919050565b5f6020820190508181035f830152614a3e81614a05565b9050919050565b5f614a4f826148b5565b91507f80000000000000000000000000000000000000000000000000000000000000008203614a8157614a80613e76565b5b815f039050919050565b5f819050919050565b614aa5614aa082613ac8565b614a8b565b82525050565b5f614ab68285614a94565b602082019150614ac68284614a94565b6020820191508190509392505050565b5f82825260208201905092915050565b828183375f83830152505050565b5f614aff8385614ad6565b9350614b0c838584614ae6565b614b1583613a10565b840190509392505050565b5f60a082019050614b335f8301896138f9565b614b4060208301886138f9565b614b4d604083018761381e565b614b5a606083018661381e565b8181036080830152614b6d818486614af4565b9050979650505050505050565b5f819050602082019050919050565b5f614b948251613846565b80915050919050565b5f82821b905092915050565b5f614bb3826147f3565b82614bbd84614b7a565b9050614bc881614b89565b92506004821015614c0857614c037fffffffff0000000000000000000000000000000000000000000000000000000083600403600802614b9d565b831692505b5050919050565b7f52454a45435400000000000000000000000000000000000000000000000000005f82015250565b5f614c436006836139f2565b9150614c4e82614c0f565b602082019050919050565b5f6020820190508181035f830152614c7081614c37565b9050919050565b5f614c81826148b5565b9150614c8c836148b5565b925082820390508181125f8412168282135f851215161715614cb157614cb0613e76565b5b9291505056fea264697066735822122095259b2f958a18e0e57e635a761232308fc97c6784bb8933fe08416de9c2ea5764736f6c634300081e0033a2646970667358221220935e91d0d1cb2582285ccd239c65bc7acfa7eb95d415131d468ce5e21003fec664736f6c634300081e0033","linkReferences":{}},"methodIdentifiers":{"defaultB()":"3f248013","defaultFeeBps()":"bcae25a4","deployMarket(address,address,int32,string)":"f41365bf","treasury()":"61d027b3"},"id":16}