{"abi":[{"type":"constructor","inputs":[{"name":"_treasury","type":"address","internalType":"address"},{"name":"_defaultFeeBps","type":"uint256","internalType":"uint256"}],"stateMutability":"nonpayable"},{"type":"function","name":"defaultFeeBps","inputs":[],"outputs":[{"name":"","type":"uint256","internalType":"uint256"}],"stateMutability":"view"},{"type":"function","name":"deployMarket","inputs":[{"name":"owner","type":"address","internalType":"address"},{"name":"resolver","type":"address","internalType":"address"},{"name":"cellSizeE6","type":"int32","internalType":"int32"},{"name":"marketURI","type":"string","internalType":"string"}],"outputs":[{"name":"market","type":"address","internalType":"address"}],"stateMutability":"nonpayable"},{"type":"function","name":"treasury","inputs":[],"outputs":[{"name":"","type":"address","internalType":"address"}],"stateMutability":"view"},{"type":"event","name":"MarketDeployed","inputs":[{"name":"market","type":"address","indexed":true,"internalType":"address"},{"name":"owner","type":"address","indexed":true,"internalType":"address"},{"name":"marketURI","type":"string","indexed":false,"internalType":"string"}],"anonymous":false}],"bytecode":{"object":"0x60c060405234801561000f575f5ffd5b5060405161543b38038061543b833981810160405281019061003191906101b8565b5f73ffffffffffffffffffffffffffffffffffffffff168273ffffffffffffffffffffffffffffffffffffffff160361009f576040517f08c379a000000000000000000000000000000000000000000000000000000000815260040161009690610250565b60405180910390fd5b6103e88111156100e4576040517f08c379a00000000000000000000000000000000000000000000000000000000081526004016100db906102b8565b60405180910390fd5b8173ffffffffffffffffffffffffffffffffffffffff1660808173ffffffffffffffffffffffffffffffffffffffff16815250508060a0818152505050506102d6565b5f5ffd5b5f73ffffffffffffffffffffffffffffffffffffffff82169050919050565b5f6101548261012b565b9050919050565b6101648161014a565b811461016e575f5ffd5b50565b5f8151905061017f8161015b565b92915050565b5f819050919050565b61019781610185565b81146101a1575f5ffd5b50565b5f815190506101b28161018e565b92915050565b5f5f604083850312156101ce576101cd610127565b5b5f6101db85828601610171565b92505060206101ec858286016101a4565b9150509250929050565b5f82825260208201905092915050565b7f5a45524f5f5452454153555259000000000000000000000000000000000000005f82015250565b5f61023a600d836101f6565b915061024582610206565b602082019050919050565b5f6020820190508181035f8301526102678161022e565b9050919050565b7f46454500000000000000000000000000000000000000000000000000000000005f82015250565b5f6102a26003836101f6565b91506102ad8261026e565b602082019050919050565b5f6020820190508181035f8301526102cf81610296565b9050919050565b60805160a0516151396103025f395f818160d5015261011d01525f818160b1015260fc01526151395ff3fe608060405234801561000f575f5ffd5b506004361061003f575f3560e01c806361d027b314610043578063bcae25a414610061578063f41365bf1461007f575b5f5ffd5b61004b6100af565b604051610058919061022e565b60405180910390f35b6100696100d3565b604051610076919061025f565b60405180910390f35b61009960048036038101906100949190610425565b6100f7565b6040516100a6919061022e565b60405180910390f35b7f000000000000000000000000000000000000000000000000000000000000000081565b7f000000000000000000000000000000000000000000000000000000000000000081565b5f84847f00000000000000000000000000000000000000000000000000000000000000007f0000000000000000000000000000000000000000000000000000000000000000868660405161014a906101e2565b61015996959493929190610514565b604051809103905ff080158015610172573d5f5f3e3d5ffd5b5090508473ffffffffffffffffffffffffffffffffffffffff168173ffffffffffffffffffffffffffffffffffffffff167f17700d3f784ec84c95155815b843e11cc42687ab9b635e07535ea2da77b4061b846040516101d2919061057a565b60405180910390a3949350505050565b614b698061059b83390190565b5f73ffffffffffffffffffffffffffffffffffffffff82169050919050565b5f610218826101ef565b9050919050565b6102288161020e565b82525050565b5f6020820190506102415f83018461021f565b92915050565b5f819050919050565b61025981610247565b82525050565b5f6020820190506102725f830184610250565b92915050565b5f604051905090565b5f5ffd5b5f5ffd5b6102928161020e565b811461029c575f5ffd5b50565b5f813590506102ad81610289565b92915050565b5f8160030b9050919050565b6102c8816102b3565b81146102d2575f5ffd5b50565b5f813590506102e3816102bf565b92915050565b5f5ffd5b5f5ffd5b5f601f19601f8301169050919050565b7f4e487b71000000000000000000000000000000000000000000000000000000005f52604160045260245ffd5b610337826102f1565b810181811067ffffffffffffffff8211171561035657610355610301565b5b80604052505050565b5f610368610278565b9050610374828261032e565b919050565b5f67ffffffffffffffff82111561039357610392610301565b5b61039c826102f1565b9050602081019050919050565b828183375f83830152505050565b5f6103c96103c484610379565b61035f565b9050828152602081018484840111156103e5576103e46102ed565b5b6103f08482856103a9565b509392505050565b5f82601f83011261040c5761040b6102e9565b5b813561041c8482602086016103b7565b91505092915050565b5f5f5f5f6080858703121561043d5761043c610281565b5b5f61044a8782880161029f565b945050602061045b8782880161029f565b935050604061046c878288016102d5565b925050606085013567ffffffffffffffff81111561048d5761048c610285565b5b610499878288016103f8565b91505092959194509250565b6104ae816102b3565b82525050565b5f81519050919050565b5f82825260208201905092915050565b8281835e5f83830152505050565b5f6104e6826104b4565b6104f081856104be565b93506105008185602086016104ce565b610509816102f1565b840191505092915050565b5f60c0820190506105275f83018961021f565b610534602083018861021f565b610541604083018761021f565b61054e6060830186610250565b61055b60808301856104a5565b81810360a083015261056d81846104dc565b9050979650505050505050565b5f6020820190508181035f83015261059281846104dc565b90509291505056fe610120604052348015610010575f5ffd5b50604051614b69380380614b6983398181016040528101906100329190610495565b60015f819055505f73ffffffffffffffffffffffffffffffffffffffff168673ffffffffffffffffffffffffffffffffffffffff16141580156100a157505f73ffffffffffffffffffffffffffffffffffffffff168573ffffffffffffffffffffffffffffffffffffffff1614155b80156100d957505f73ffffffffffffffffffffffffffffffffffffffff168473ffffffffffffffffffffffffffffffffffffffff1614155b610118576040517f08c379a000000000000000000000000000000000000000000000000000000000815260040161010f90610594565b60405180910390fd5b6103e883111561015d576040517f08c379a0000000000000000000000000000000000000000000000000000000008152600401610154906105fc565b60405180910390fd5b5f8260030b136101a2576040517f08c379a000000000000000000000000000000000000000000000000000000000815260040161019990610664565b60405180910390fd5b8573ffffffffffffffffffffffffffffffffffffffff1660808173ffffffffffffffffffffffffffffffffffffffff16815250508473ffffffffffffffffffffffffffffffffffffffff1660a08173ffffffffffffffffffffffffffffffffffffffff16815250508373ffffffffffffffffffffffffffffffffffffffff1660c08173ffffffffffffffffffffffffffffffffffffffff16815250508260e08181525050426003819055505f6004819055505f6005819055508160030b6101008160030b8152505080600890816102799190610889565b50505050505050610958565b5f604051905090565b5f5ffd5b5f5ffd5b5f73ffffffffffffffffffffffffffffffffffffffff82169050919050565b5f6102bf82610296565b9050919050565b6102cf816102b5565b81146102d9575f5ffd5b50565b5f815190506102ea816102c6565b92915050565b5f819050919050565b610302816102f0565b811461030c575f5ffd5b50565b5f8151905061031d816102f9565b92915050565b5f8160030b9050919050565b61033881610323565b8114610342575f5ffd5b50565b5f815190506103538161032f565b92915050565b5f5ffd5b5f5ffd5b5f601f19601f8301169050919050565b7f4e487b71000000000000000000000000000000000000000000000000000000005f52604160045260245ffd5b6103a782610361565b810181811067ffffffffffffffff821117156103c6576103c5610371565b5b80604052505050565b5f6103d8610285565b90506103e4828261039e565b919050565b5f67ffffffffffffffff82111561040357610402610371565b5b61040c82610361565b9050602081019050919050565b8281835e5f83830152505050565b5f610439610434846103e9565b6103cf565b9050828152602081018484840111156104555761045461035d565b5b610460848285610419565b509392505050565b5f82601f83011261047c5761047b610359565b5b815161048c848260208601610427565b91505092915050565b5f5f5f5f5f5f60c087890312156104af576104ae61028e565b5b5f6104bc89828a016102dc565b96505060206104cd89828a016102dc565b95505060406104de89828a016102dc565b94505060606104ef89828a0161030f565b935050608061050089828a01610345565b92505060a087015167ffffffffffffffff81111561052157610520610292565b5b61052d89828a01610468565b9150509295509295509295565b5f82825260208201905092915050565b7f5a45524f5f4144445200000000000000000000000000000000000000000000005f82015250565b5f61057e60098361053a565b91506105898261054a565b602082019050919050565b5f6020820190508181035f8301526105ab81610572565b9050919050565b7f46454500000000000000000000000000000000000000000000000000000000005f82015250565b5f6105e660038361053a565b91506105f1826105b2565b602082019050919050565b5f6020820190508181035f830152610613816105da565b9050919050565b7f43454c4c000000000000000000000000000000000000000000000000000000005f82015250565b5f61064e60048361053a565b91506106598261061a565b602082019050919050565b5f6020820190508181035f83015261067b81610642565b9050919050565b5f81519050919050565b7f4e487b71000000000000000000000000000000000000000000000000000000005f52602260045260245ffd5b5f60028204905060018216806106d057607f821691505b6020821081036106e3576106e261068c565b5b50919050565b5f819050815f5260205f209050919050565b5f6020601f8301049050919050565b5f82821b905092915050565b5f600883026107457fffffffffffffffffffffffffffffffffffffffffffffffffffffffffffffffff8261070a565b61074f868361070a565b95508019841693508086168417925050509392505050565b5f819050919050565b5f61078a610785610780846102f0565b610767565b6102f0565b9050919050565b5f819050919050565b6107a383610770565b6107b76107af82610791565b848454610716565b825550505050565b5f5f905090565b6107ce6107bf565b6107d981848461079a565b505050565b5b818110156107fc576107f15f826107c6565b6001810190506107df565b5050565b601f82111561084157610812816106e9565b61081b846106fb565b8101602085101561082a578190505b61083e610836856106fb565b8301826107de565b50505b505050565b5f82821c905092915050565b5f6108615f1984600802610846565b1980831691505092915050565b5f6108798383610852565b9150826002028217905092915050565b61089282610682565b67ffffffffffffffff8111156108ab576108aa610371565b5b6108b582546106b9565b6108c0828285610800565b5f60209050601f8311600181146108f1575f84156108df578287015190505b6108e9858261086e565b865550610950565b601f1984166108ff866106e9565b5f5b8281101561092657848901518255600182019150602085019450602081019050610901565b86831015610943578489015161093f601f891682610852565b8355505b6001600288020188555050505b505050505050565b60805160a05160c05160e051610100516141a36109c65f395f81816108b3015281816109090152610e1c01525f81816108e3015261143a01525f8181610df5015261148201525f818161088f01528181611781015261186a01525f81816110a6015261168e01526141a35ff3fe6080604052600436106101cb575f3560e01c806381117af0116100f6578063ae0b51df11610094578063dfcfd35611610063578063dfcfd35614610682578063e985e9c5146106aa578063f242432a146106e6578063ffb54a991461070e576101cb565b8063ae0b51df146105d8578063b2a60ad814610614578063bc25cf7714610644578063c511ed5e1461066c576101cb565b8063854d650d116100d0578063854d650d146105405780638da5cb5b1461055c5780639ddec36514610586578063a22cb465146105b0576101cb565b806381117af0146104af578063817b1cd2146104ec5780638227092014610516576101cb565b8063257392bb1161016e5780634be7adee1161013d5780634be7adee146103d15780634e1273f41461040d57806353538a841461044957806361d027b314610485576101cb565b8063257392bb146103195780632eb2c2d61461035557806333812adc1461037d578063447831ab146103a7576101cb565b806309acf408116101aa57806309acf408146102715780630a671fb81461029b57806319effeb4146102c557806324a9d853146102ef576101cb565b8062fdd58e146101cf57806301ffc9a71461020b57806304f3bcec14610247575b5f5ffd5b3480156101da575f5ffd5b506101f560048036038101906101f0919061287e565b610738565b60405161020291906128cb565b60405180910390f35b348015610216575f5ffd5b50610231600480360381019061022c9190612939565b6107fc565b60405161023e919061297e565b60405180910390f35b348015610252575f5ffd5b5061025b61088d565b60405161026891906129a6565b60405180910390f35b34801561027c575f5ffd5b506102856108b1565b60405161029291906129da565b60405180910390f35b3480156102a6575f5ffd5b506102af6108d5565b6040516102bc91906128cb565b60405180910390f35b3480156102d0575f5ffd5b506102d96108db565b6040516102e691906128cb565b60405180910390f35b3480156102fa575f5ffd5b506103036108e1565b60405161031091906128cb565b60405180910390f35b348015610324575f5ffd5b5061033f600480360381019061033a9190612a1d565b610905565b60405161034c91906128cb565b60405180910390f35b348015610360575f5ffd5b5061037b60048036038101906103769190612b11565b610a54565b005b348015610388575f5ffd5b50610391610b35565b60405161039e91906128cb565b60405180910390f35b3480156103b2575f5ffd5b506103bb610b3b565b6040516103c89190612c58565b60405180910390f35b3480156103dc575f5ffd5b506103f760048036038101906103f29190612ccd565b610bc7565b60405161040491906128cb565b60405180910390f35b348015610418575f5ffd5b50610433600480360381019061042e9190612dd2565b610cb7565b6040516104409190612f07565b60405180910390f35b348015610454575f5ffd5b5061046f600480360381019061046a9190612f27565b610dde565b60405161047c91906128cb565b60405180910390f35b348015610490575f5ffd5b50610499610df3565b6040516104a691906129a6565b60405180910390f35b3480156104ba575f5ffd5b506104d560048036038101906104d09190612f27565b610e17565b6040516104e3929190612f52565b60405180910390f35b3480156104f7575f5ffd5b50610500610ee3565b60405161050d91906128cb565b60405180910390f35b348015610521575f5ffd5b5061052a610ee9565b6040516105379190612f91565b60405180910390f35b61055a60048036038101906105559190612f27565b610eef565b005b348015610567575f5ffd5b506105706110a4565b60405161057d91906129a6565b60405180910390f35b348015610591575f5ffd5b5061059a6110c8565b6040516105a791906128cb565b60405180910390f35b3480156105bb575f5ffd5b506105d660048036038101906105d19190612fd4565b6110ce565b005b3480156105e3575f5ffd5b506105fe60048036038101906105f99190613067565b6111c6565b60405161060b91906128cb565b60405180910390f35b61062e60048036038101906106299190612a1d565b6114c7565b60405161063b91906128cb565b60405180910390f35b34801561064f575f5ffd5b5061066a600480360381019061066591906130d8565b61168c565b005b348015610677575f5ffd5b5061068061177f565b005b34801561068d575f5ffd5b506106a860048036038101906106a3919061312d565b611868565b005b3480156106b5575f5ffd5b506106d060048036038101906106cb919061316b565b6119d4565b6040516106dd919061297e565b60405180910390f35b3480156106f1575f5ffd5b5061070c600480360381019061070791906131a9565b611a62565b005b348015610719575f5ffd5b50610722611af7565b60405161072f91906128cb565b60405180910390f35b5f5f73ffffffffffffffffffffffffffffffffffffffff168373ffffffffffffffffffffffffffffffffffffffff16036107a7576040517f08c379a000000000000000000000000000000000000000000000000000000000815260040161079e90613289565b60405180910390fd5b60015f8381526020019081526020015f205f8473ffffffffffffffffffffffffffffffffffffffff1673ffffffffffffffffffffffffffffffffffffffff1681526020019081526020015f2054905092915050565b5f6301ffc9a760e01b827bffffffffffffffffffffffffffffffffffffffffffffffffffffffff19161480610856575063d9b67a2660e01b827bffffffffffffffffffffffffffffffffffffffffffffffffffffffff1916145b806108865750630e89341c60e01b827bffffffffffffffffffffffffffffffffffffffffffffffffffffffff1916145b9050919050565b7f000000000000000000000000000000000000000000000000000000000000000081565b7f000000000000000000000000000000000000000000000000000000000000000081565b60045481565b600b5481565b7f000000000000000000000000000000000000000000000000000000000000000081565b5f5f7f000000000000000000000000000000000000000000000000000000000000000090505f63055d4a808560030b61093e91906132e0565b90505f630aba95008560030b61095491906132e0565b90505f8260070b121580156109705750630aba95008260070b13155b6109af576040517f08c379a00000000000000000000000000000000000000000000000000000000081526004016109a690613389565b60405180910390fd5b5f8160070b121580156109c957506315752a008160070b13155b610a08576040517f08c379a00000000000000000000000000000000000000000000000000000000081526004016109ff906133f1565b60405180910390fd5b5f8360030b83610a18919061343c565b90505f8460030b83610a2a919061343c565b90508067ffffffffffffffff1660408367ffffffffffffffff16901b179550505050505092915050565b3373ffffffffffffffffffffffffffffffffffffffff168873ffffffffffffffffffffffffffffffffffffffff161480610a945750610a9388336119d4565b5b610ad3576040517f08c379a0000000000000000000000000000000000000000000000000000000008152600401610aca906134ee565b60405180910390fd5b838390508686905014610b1b576040517f08c379a0000000000000000000000000000000000000000000000000000000008152600401610b1290613556565b60405180910390fd5b610b2b8888888888888888611afd565b5050505050505050565b600a5481565b60088054610b48906135a1565b80601f0160208091040260200160405190810160405280929190818152602001828054610b74906135a1565b8015610bbf5780601f10610b9657610100808354040283529160200191610bbf565b820191905f5260205f20905b815481529060010190602001808311610ba257829003601f168201915b505050505081565b5f8484905087879050148015610be257508282905087879050145b610c21576040517f08c379a0000000000000000000000000000000000000000000000000000000008152600401610c1890613556565b60405180910390fd5b5f5f90505b87879050811015610cac57610c92888883818110610c4757610c466135d1565b5b90506020020135878784818110610c6157610c606135d1565b5b90506020020135868685818110610c7b57610c7a6135d1565b5b9050602002810190610c8d919061360a565b6111c6565b82610c9d919061366c565b91508080600101915050610c26565b509695505050505050565b6060828290508585905014610d01576040517f08c379a0000000000000000000000000000000000000000000000000000000008152600401610cf890613556565b60405180910390fd5b8484905067ffffffffffffffff811115610d1e57610d1d61369f565b5b604051908082528060200260200182016040528015610d4c5781602001602082028036833780820191505090505b5090505f5f90505b85859050811015610dd557610da9868683818110610d7557610d746135d1565b5b9050602002016020810190610d8a91906130d8565b858584818110610d9d57610d9c6135d1565b5b90506020020135610738565b828281518110610dbc57610dbb6135d1565b5b6020026020010181815250508080600101915050610d54565b50949350505050565b6007602052805f5260405f205f915090505481565b7f000000000000000000000000000000000000000000000000000000000000000081565b5f5f5f7f000000000000000000000000000000000000000000000000000000000000000090505f604085901c90505f8590505f63055d4a808460030b8467ffffffffffffffff16610e6891906136cc565b610e729190613708565b90505f630aba95008560030b8467ffffffffffffffff16610e9391906136cc565b610e9d9190613708565b9050600285610eac9190613767565b60030b82610eba91906132e0565b9650600285610ec99190613767565b60030b81610ed791906132e0565b95505050505050915091565b60065481565b60095481565b60025f5403610f33576040517f08c379a0000000000000000000000000000000000000000000000000000000008152600401610f2a90613819565b60405180910390fd5b60025f819055505f3490505f8111610f80576040517f08c379a0000000000000000000000000000000000000000000000000000000008152600401610f7790613881565b60405180910390fd5b5f429050600354811015610fc0576040517fe09f033100000000000000000000000000000000000000000000000000000000815260040160405180910390fd5b5f60045414610ffb576040517fe2c865df00000000000000000000000000000000000000000000000000000000815260040160405180910390fd5b611006338484611dab565b8160075f8581526020019081526020015f205f828254611026919061366c565b925050819055508160065f82825461103e919061366c565b92505081905550823373ffffffffffffffffffffffffffffffffffffffff167f1e546aecff436ff014f30bf433e36cf7348446dd2c295c4623697d77513bd9aa5f5f86604051611090939291906138e1565b60405180910390a3505060015f8190555050565b7f000000000000000000000000000000000000000000000000000000000000000081565b60055481565b8060025f3373ffffffffffffffffffffffffffffffffffffffff1673ffffffffffffffffffffffffffffffffffffffff1681526020019081526020015f205f8473ffffffffffffffffffffffffffffffffffffffff1673ffffffffffffffffffffffffffffffffffffffff1681526020019081526020015f205f6101000a81548160ff0219169083151502179055508173ffffffffffffffffffffffffffffffffffffffff163373ffffffffffffffffffffffffffffffffffffffff167f17307eab39ab6107e8899845ad3d59bd9653f200f220920489ca2b5937696c31836040516111ba919061297e565b60405180910390a35050565b5f60025f540361120b576040517f08c379a000000000000000000000000000000000000000000000000000000000815260040161120290613819565b60405180910390fd5b60025f819055505f6005541415801561122657506005544210155b611265576040517f08c379a000000000000000000000000000000000000000000000000000000000815260040161125c90613960565b60405180910390fd5b5f60095490505f5f1b811415801561127e57505f600a54115b6112bd576040517f08c379a00000000000000000000000000000000000000000000000000000000081526004016112b4906139c8565b60405180910390fd5b5f60015f8881526020019081526020015f205f3373ffffffffffffffffffffffffffffffffffffffff1673ffffffffffffffffffffffffffffffffffffffff1681526020019081526020015f205490505f811161134f576040517f08c379a000000000000000000000000000000000000000000000000000000000815260040161134690613a30565b60405180910390fd5b5f8787604051602001611363929190613a4e565b6040516020818303038152906040528051906020012090506113c68686808060200260200160405190810160405280939291908181526020018383602002808284375f81840152601f19601f820116905080830192505050505050508483611efe565b611405576040517f08c379a00000000000000000000000000000000000000000000000000000000081526004016113fc90613abf565b60405180910390fd5b611410338984611f14565b5f600a5488846114209190613add565b61142a9190613b1e565b90505f8111156114b4575f6127107f0000000000000000000000000000000000000000000000000000000000000000836114649190613add565b61146e9190613b1e565b905080820395505f8111156114a8576114a77f00000000000000000000000000000000000000000000000000000000000000008261207e565b5b6114b2338761207e565b505b5050505060015f81905550949350505050565b5f60025f540361150c576040517f08c379a000000000000000000000000000000000000000000000000000000000815260040161150390613819565b60405180910390fd5b60025f819055505f3490505f8111611559576040517f08c379a000000000000000000000000000000000000000000000000000000000815260040161155090613881565b60405180910390fd5b5f429050600354811015611599576040517fe09f033100000000000000000000000000000000000000000000000000000000815260040160405180910390fd5b5f600454146115d4576040517fe2c865df00000000000000000000000000000000000000000000000000000000815260040160405180910390fd5b6115de8585610905565b92506115eb338484611dab565b8160075f8581526020019081526020015f205f82825461160b919061366c565b925050819055508160065f828254611623919061366c565b92505081905550823373ffffffffffffffffffffffffffffffffffffffff167f1e546aecff436ff014f30bf433e36cf7348446dd2c295c4623697d77513bd9aa87878660405161167593929190613b4e565b60405180910390a3505060015f8190555092915050565b7f000000000000000000000000000000000000000000000000000000000000000073ffffffffffffffffffffffffffffffffffffffff163373ffffffffffffffffffffffffffffffffffffffff1614611711576040517f30cd747100000000000000000000000000000000000000000000000000000000815260040160405180910390fd5b5f6005541415801561172557506005544210155b611764576040517f08c379a000000000000000000000000000000000000000000000000000000000815260040161175b90613960565b60405180910390fd5b5f4790505f81111561177b5761177a828261207e565b5b5050565b7f000000000000000000000000000000000000000000000000000000000000000073ffffffffffffffffffffffffffffffffffffffff163373ffffffffffffffffffffffffffffffffffffffff1614611804576040517fba2a9fc200000000000000000000000000000000000000000000000000000000815260040160405180910390fd5b5f60045414611848576040517f08c379a000000000000000000000000000000000000000000000000000000000815260040161183f90613bcd565b60405180910390fd5b4260048190555062093a80600454611860919061366c565b600581905550565b7f000000000000000000000000000000000000000000000000000000000000000073ffffffffffffffffffffffffffffffffffffffff163373ffffffffffffffffffffffffffffffffffffffff16146118ed576040517fba2a9fc200000000000000000000000000000000000000000000000000000000815260040160405180910390fd5b5f6004541415801561190157506004544210155b611940576040517f08c379a000000000000000000000000000000000000000000000000000000000815260040161193790613c35565b60405180910390fd5b5f8111611982576040517f08c379a000000000000000000000000000000000000000000000000000000000815260040161197990613c9d565b60405180910390fd5b8160098190555080600a8190555042600b819055507fba338cf2d2f979bacbfc5a51de4bab83ea916e9e13371a98683c0b190ce9a95e82826040516119c8929190613cbb565b60405180910390a15050565b5f60025f8473ffffffffffffffffffffffffffffffffffffffff1673ffffffffffffffffffffffffffffffffffffffff1681526020019081526020015f205f8373ffffffffffffffffffffffffffffffffffffffff1673ffffffffffffffffffffffffffffffffffffffff1681526020019081526020015f205f9054906101000a900460ff16905092915050565b3373ffffffffffffffffffffffffffffffffffffffff168673ffffffffffffffffffffffffffffffffffffffff161480611aa25750611aa186336119d4565b5b611ae1576040517f08c379a0000000000000000000000000000000000000000000000000000000008152600401611ad8906134ee565b60405180910390fd5b611aef868686868686612179565b505050505050565b60035481565b5f73ffffffffffffffffffffffffffffffffffffffff168773ffffffffffffffffffffffffffffffffffffffff1603611b6b576040517f08c379a0000000000000000000000000000000000000000000000000000000008152600401611b6290613d2c565b60405180910390fd5b5f5f90505b86869050811015611d0d575f878783818110611b8f57611b8e6135d1565b5b9050602002013590505f868684818110611bac57611bab6135d1565b5b9050602002013590505f60015f8481526020019081526020015f205f8d73ffffffffffffffffffffffffffffffffffffffff1673ffffffffffffffffffffffffffffffffffffffff1681526020019081526020015f2054905081811015611c48576040517f08c379a0000000000000000000000000000000000000000000000000000000008152600401611c3f90613d94565b60405180910390fd5b81810360015f8581526020019081526020015f205f8e73ffffffffffffffffffffffffffffffffffffffff1673ffffffffffffffffffffffffffffffffffffffff1681526020019081526020015f20819055508160015f8581526020019081526020015f205f8d73ffffffffffffffffffffffffffffffffffffffff1673ffffffffffffffffffffffffffffffffffffffff1681526020019081526020015f205f828254611cf6919061366c565b925050819055505050508080600101915050611b70565b508673ffffffffffffffffffffffffffffffffffffffff168873ffffffffffffffffffffffffffffffffffffffff163373ffffffffffffffffffffffffffffffffffffffff167f4a39dc06d4c0dbc64b70af90fd698a233a518aa5d07e595d983b8c0526c8f7fb89898989604051611d889493929190613e1a565b60405180910390a4611da13389898989898989896123c5565b5050505050505050565b5f73ffffffffffffffffffffffffffffffffffffffff168373ffffffffffffffffffffffffffffffffffffffff1603611e19576040517f08c379a0000000000000000000000000000000000000000000000000000000008152600401611e1090613d2c565b60405180910390fd5b8060015f8481526020019081526020015f205f8573ffffffffffffffffffffffffffffffffffffffff1673ffffffffffffffffffffffffffffffffffffffff1681526020019081526020015f205f828254611e74919061366c565b925050819055508273ffffffffffffffffffffffffffffffffffffffff165f73ffffffffffffffffffffffffffffffffffffffff163373ffffffffffffffffffffffffffffffffffffffff167fc3d58168c5ae7397731d063d5bbf3d657854427343f4c083240f7aacaa2d0f628585604051611ef1929190613a4e565b60405180910390a4505050565b5f82611f0a8584612586565b1490509392505050565b5f60015f8481526020019081526020015f205f8573ffffffffffffffffffffffffffffffffffffffff1673ffffffffffffffffffffffffffffffffffffffff1681526020019081526020015f2054905081811015611fa7576040517f08c379a0000000000000000000000000000000000000000000000000000000008152600401611f9e90613d94565b60405180910390fd5b81810360015f8581526020019081526020015f205f8673ffffffffffffffffffffffffffffffffffffffff1673ffffffffffffffffffffffffffffffffffffffff1681526020019081526020015f20819055505f73ffffffffffffffffffffffffffffffffffffffff168473ffffffffffffffffffffffffffffffffffffffff163373ffffffffffffffffffffffffffffffffffffffff167fc3d58168c5ae7397731d063d5bbf3d657854427343f4c083240f7aacaa2d0f628686604051612070929190613a4e565b60405180910390a450505050565b5f8273ffffffffffffffffffffffffffffffffffffffff16825f67ffffffffffffffff8111156120b1576120b061369f565b5b6040519080825280601f01601f1916602001820160405280156120e35781602001600182028036833780820191505090505b506040516120f19190613e97565b5f6040518083038185875af1925050503d805f811461212b576040519150601f19603f3d011682016040523d82523d5f602084013e612130565b606091505b5050905080612174576040517f08c379a000000000000000000000000000000000000000000000000000000000815260040161216b90613ef7565b60405180910390fd5b505050565b5f73ffffffffffffffffffffffffffffffffffffffff168573ffffffffffffffffffffffffffffffffffffffff16036121e7576040517f08c379a00000000000000000000000000000000000000000000000000000000081526004016121de90613d2c565b60405180910390fd5b5f60015f8681526020019081526020015f205f8873ffffffffffffffffffffffffffffffffffffffff1673ffffffffffffffffffffffffffffffffffffffff1681526020019081526020015f205490508381101561227a576040517f08c379a000000000000000000000000000000000000000000000000000000000815260040161227190613d94565b60405180910390fd5b83810360015f8781526020019081526020015f205f8973ffffffffffffffffffffffffffffffffffffffff1673ffffffffffffffffffffffffffffffffffffffff1681526020019081526020015f20819055508360015f8781526020019081526020015f205f8873ffffffffffffffffffffffffffffffffffffffff1673ffffffffffffffffffffffffffffffffffffffff1681526020019081526020015f205f828254612328919061366c565b925050819055508573ffffffffffffffffffffffffffffffffffffffff168773ffffffffffffffffffffffffffffffffffffffff163373ffffffffffffffffffffffffffffffffffffffff167fc3d58168c5ae7397731d063d5bbf3d657854427343f4c083240f7aacaa2d0f6288886040516123a5929190613a4e565b60405180910390a46123bc3388888888888861262e565b50505050505050565b5f8773ffffffffffffffffffffffffffffffffffffffff163b111561257b575f5f8873ffffffffffffffffffffffffffffffffffffffff1663bc197c8160e01b8c8c8b8b8b8b8b8b604051602401612424989796959493929190613f5f565b604051602081830303815290604052907bffffffffffffffffffffffffffffffffffffffffffffffffffffffff19166020820180517bffffffffffffffffffffffffffffffffffffffffffffffffffffffff838183161783525050505060405161248e9190613e97565b5f604051808303815f865af19150503d805f81146124c7576040519150601f19603f3d011682016040523d82523d5f602084013e6124cc565b606091505b50915091508180156124e057506004815110155b8015612539575063bc197c8160e01b7bffffffffffffffffffffffffffffffffffffffffffffffffffffffff19168161251890613ffa565b7bffffffffffffffffffffffffffffffffffffffffffffffffffffffff1916145b612578576040517f08c379a000000000000000000000000000000000000000000000000000000000815260040161256f906140aa565b60405180910390fd5b50505b505050505050505050565b5f8190505f5f90505b8351811015612627575f8482815181106125ac576125ab6135d1565b5b602002602001015190508083116125ed5782816040516020016125d09291906140e8565b604051602081830303815290604052805190602001209250612619565b80836040516020016126009291906140e8565b6040516020818303038152906040528051906020012092505b50808060010191505061258f565b5092915050565b5f8573ffffffffffffffffffffffffffffffffffffffff163b11156127e0575f5f8673ffffffffffffffffffffffffffffffffffffffff1663f23a6e6160e01b8a8a8989898960405160240161268996959493929190614113565b604051602081830303815290604052907bffffffffffffffffffffffffffffffffffffffffffffffffffffffff19166020820180517bffffffffffffffffffffffffffffffffffffffffffffffffffffffff83818316178352505050506040516126f39190613e97565b5f604051808303815f865af19150503d805f811461272c576040519150601f19603f3d011682016040523d82523d5f602084013e612731565b606091505b509150915081801561274557506004815110155b801561279e575063f23a6e6160e01b7bffffffffffffffffffffffffffffffffffffffffffffffffffffffff19168161277d90613ffa565b7bffffffffffffffffffffffffffffffffffffffffffffffffffffffff1916145b6127dd576040517f08c379a00000000000000000000000000000000000000000000000000000000081526004016127d4906140aa565b60405180910390fd5b50505b50505050505050565b5f5ffd5b5f5ffd5b5f73ffffffffffffffffffffffffffffffffffffffff82169050919050565b5f61281a826127f1565b9050919050565b61282a81612810565b8114612834575f5ffd5b50565b5f8135905061284581612821565b92915050565b5f819050919050565b61285d8161284b565b8114612867575f5ffd5b50565b5f8135905061287881612854565b92915050565b5f5f60408385031215612894576128936127e9565b5b5f6128a185828601612837565b92505060206128b28582860161286a565b9150509250929050565b6128c58161284b565b82525050565b5f6020820190506128de5f8301846128bc565b92915050565b5f7fffffffff0000000000000000000000000000000000000000000000000000000082169050919050565b612918816128e4565b8114612922575f5ffd5b50565b5f813590506129338161290f565b92915050565b5f6020828403121561294e5761294d6127e9565b5b5f61295b84828501612925565b91505092915050565b5f8115159050919050565b61297881612964565b82525050565b5f6020820190506129915f83018461296f565b92915050565b6129a081612810565b82525050565b5f6020820190506129b95f830184612997565b92915050565b5f8160030b9050919050565b6129d4816129bf565b82525050565b5f6020820190506129ed5f8301846129cb565b92915050565b6129fc816129bf565b8114612a06575f5ffd5b50565b5f81359050612a17816129f3565b92915050565b5f5f60408385031215612a3357612a326127e9565b5b5f612a4085828601612a09565b9250506020612a5185828601612a09565b9150509250929050565b5f5ffd5b5f5ffd5b5f5ffd5b5f5f83601f840112612a7c57612a7b612a5b565b5b8235905067ffffffffffffffff811115612a9957612a98612a5f565b5b602083019150836020820283011115612ab557612ab4612a63565b5b9250929050565b5f5f83601f840112612ad157612ad0612a5b565b5b8235905067ffffffffffffffff811115612aee57612aed612a5f565b5b602083019150836001820283011115612b0a57612b09612a63565b5b9250929050565b5f5f5f5f5f5f5f5f60a0898b031215612b2d57612b2c6127e9565b5b5f612b3a8b828c01612837565b9850506020612b4b8b828c01612837565b975050604089013567ffffffffffffffff811115612b6c57612b6b6127ed565b5b612b788b828c01612a67565b9650965050606089013567ffffffffffffffff811115612b9b57612b9a6127ed565b5b612ba78b828c01612a67565b9450945050608089013567ffffffffffffffff811115612bca57612bc96127ed565b5b612bd68b828c01612abc565b92509250509295985092959890939650565b5f81519050919050565b5f82825260208201905092915050565b8281835e5f83830152505050565b5f601f19601f8301169050919050565b5f612c2a82612be8565b612c348185612bf2565b9350612c44818560208601612c02565b612c4d81612c10565b840191505092915050565b5f6020820190508181035f830152612c708184612c20565b905092915050565b5f5f83601f840112612c8d57612c8c612a5b565b5b8235905067ffffffffffffffff811115612caa57612ca9612a5f565b5b602083019150836020820283011115612cc657612cc5612a63565b5b9250929050565b5f5f5f5f5f5f60608789031215612ce757612ce66127e9565b5b5f87013567ffffffffffffffff811115612d0457612d036127ed565b5b612d1089828a01612a67565b9650965050602087013567ffffffffffffffff811115612d3357612d326127ed565b5b612d3f89828a01612a67565b9450945050604087013567ffffffffffffffff811115612d6257612d616127ed565b5b612d6e89828a01612c78565b92509250509295509295509295565b5f5f83601f840112612d9257612d91612a5b565b5b8235905067ffffffffffffffff811115612daf57612dae612a5f565b5b602083019150836020820283011115612dcb57612dca612a63565b5b9250929050565b5f5f5f5f60408587031215612dea57612de96127e9565b5b5f85013567ffffffffffffffff811115612e0757612e066127ed565b5b612e1387828801612d7d565b9450945050602085013567ffffffffffffffff811115612e3657612e356127ed565b5b612e4287828801612a67565b925092505092959194509250565b5f81519050919050565b5f82825260208201905092915050565b5f819050602082019050919050565b612e828161284b565b82525050565b5f612e938383612e79565b60208301905092915050565b5f602082019050919050565b5f612eb582612e50565b612ebf8185612e5a565b9350612eca83612e6a565b805f5b83811015612efa578151612ee18882612e88565b9750612eec83612e9f565b925050600181019050612ecd565b5085935050505092915050565b5f6020820190508181035f830152612f1f8184612eab565b905092915050565b5f60208284031215612f3c57612f3b6127e9565b5b5f612f498482850161286a565b91505092915050565b5f604082019050612f655f8301856129cb565b612f7260208301846129cb565b9392505050565b5f819050919050565b612f8b81612f79565b82525050565b5f602082019050612fa45f830184612f82565b92915050565b612fb381612964565b8114612fbd575f5ffd5b50565b5f81359050612fce81612faa565b92915050565b5f5f60408385031215612fea57612fe96127e9565b5b5f612ff785828601612837565b925050602061300885828601612fc0565b9150509250929050565b5f5f83601f84011261302757613026612a5b565b5b8235905067ffffffffffffffff81111561304457613043612a5f565b5b6020830191508360208202830111156130605761305f612a63565b5b9250929050565b5f5f5f5f6060858703121561307f5761307e6127e9565b5b5f61308c8782880161286a565b945050602061309d8782880161286a565b935050604085013567ffffffffffffffff8111156130be576130bd6127ed565b5b6130ca87828801613012565b925092505092959194509250565b5f602082840312156130ed576130ec6127e9565b5b5f6130fa84828501612837565b91505092915050565b61310c81612f79565b8114613116575f5ffd5b50565b5f8135905061312781613103565b92915050565b5f5f60408385031215613143576131426127e9565b5b5f61315085828601613119565b92505060206131618582860161286a565b9150509250929050565b5f5f60408385031215613181576131806127e9565b5b5f61318e85828601612837565b925050602061319f85828601612837565b9150509250929050565b5f5f5f5f5f5f60a087890312156131c3576131c26127e9565b5b5f6131d089828a01612837565b96505060206131e189828a01612837565b95505060406131f289828a0161286a565b945050606061320389828a0161286a565b935050608087013567ffffffffffffffff811115613224576132236127ed565b5b61323089828a01612abc565b92509250509295509295509295565b7f5a45524f5f4144445200000000000000000000000000000000000000000000005f82015250565b5f613273600983612bf2565b915061327e8261323f565b602082019050919050565b5f6020820190508181035f8301526132a081613267565b9050919050565b5f8160070b9050919050565b7f4e487b71000000000000000000000000000000000000000000000000000000005f52601160045260245ffd5b5f6132ea826132a7565b91506132f5836132a7565b925082820190507fffffffffffffffffffffffffffffffffffffffffffffffff80000000000000008112677fffffffffffffff82131715613339576133386132b3565b5b92915050565b7f4c415400000000000000000000000000000000000000000000000000000000005f82015250565b5f613373600383612bf2565b915061337e8261333f565b602082019050919050565b5f6020820190508181035f8301526133a081613367565b9050919050565b7f4c4f4e00000000000000000000000000000000000000000000000000000000005f82015250565b5f6133db600383612bf2565b91506133e6826133a7565b602082019050919050565b5f6020820190508181035f830152613408816133cf565b9050919050565b7f4e487b71000000000000000000000000000000000000000000000000000000005f52601260045260245ffd5b5f613446826132a7565b9150613451836132a7565b9250826134615761346061340f565b5b60015f0383147fffffffffffffffffffffffffffffffffffffffffffffffff800000000000000083141615613499576134986132b3565b5b828205905092915050565b7f4e4f545f415554480000000000000000000000000000000000000000000000005f82015250565b5f6134d8600883612bf2565b91506134e3826134a4565b602082019050919050565b5f6020820190508181035f830152613505816134cc565b9050919050565b7f4c454e00000000000000000000000000000000000000000000000000000000005f82015250565b5f613540600383612bf2565b915061354b8261350c565b602082019050919050565b5f6020820190508181035f83015261356d81613534565b9050919050565b7f4e487b71000000000000000000000000000000000000000000000000000000005f52602260045260245ffd5b5f60028204905060018216806135b857607f821691505b6020821081036135cb576135ca613574565b5b50919050565b7f4e487b71000000000000000000000000000000000000000000000000000000005f52603260045260245ffd5b5f5ffd5b5f5ffd5b5f5ffd5b5f5f83356001602003843603038112613626576136256135fe565b5b80840192508235915067ffffffffffffffff82111561364857613647613602565b5b60208301925060208202360383131561366457613663613606565b5b509250929050565b5f6136768261284b565b91506136818361284b565b9250828201905080821115613699576136986132b3565b5b92915050565b7f4e487b71000000000000000000000000000000000000000000000000000000005f52604160045260245ffd5b5f6136d6826132a7565b91506136e1836132a7565b92508282026136ef816132a7565b9150808214613701576137006132b3565b5b5092915050565b5f613712826132a7565b915061371d836132a7565b92508282039050677fffffffffffffff81137fffffffffffffffffffffffffffffffffffffffffffffffff800000000000000082121715613761576137606132b3565b5b92915050565b5f613771826129bf565b915061377c836129bf565b92508261378c5761378b61340f565b5b60015f0383147fffffffffffffffffffffffffffffffffffffffffffffffffffffffff80000000831416156137c4576137c36132b3565b5b828205905092915050565b7f5245454e5452414e4359000000000000000000000000000000000000000000005f82015250565b5f613803600a83612bf2565b915061380e826137cf565b602082019050919050565b5f6020820190508181035f830152613830816137f7565b9050919050565b7f414d4f554e5400000000000000000000000000000000000000000000000000005f82015250565b5f61386b600683612bf2565b915061387682613837565b602082019050919050565b5f6020820190508181035f8301526138988161385f565b9050919050565b5f819050919050565b5f819050919050565b5f6138cb6138c66138c18461389f565b6138a8565b6129bf565b9050919050565b6138db816138b1565b82525050565b5f6060820190506138f45f8301866138d2565b61390160208301856138d2565b61390e60408301846128bc565b949350505050565b7f44495350555445000000000000000000000000000000000000000000000000005f82015250565b5f61394a600783612bf2565b915061395582613916565b602082019050919050565b5f6020820190508181035f8301526139778161393e565b9050919050565b7f4e4f5f52455300000000000000000000000000000000000000000000000000005f82015250565b5f6139b2600683612bf2565b91506139bd8261397e565b602082019050919050565b5f6020820190508181035f8301526139df816139a6565b9050919050565b7f4e4f5f42414c00000000000000000000000000000000000000000000000000005f82015250565b5f613a1a600683612bf2565b9150613a25826139e6565b602082019050919050565b5f6020820190508181035f830152613a4781613a0e565b9050919050565b5f604082019050613a615f8301856128bc565b613a6e60208301846128bc565b9392505050565b7f4241445f50524f4f4600000000000000000000000000000000000000000000005f82015250565b5f613aa9600983612bf2565b9150613ab482613a75565b602082019050919050565b5f6020820190508181035f830152613ad681613a9d565b9050919050565b5f613ae78261284b565b9150613af28361284b565b9250828202613b008161284b565b91508282048414831517613b1757613b166132b3565b5b5092915050565b5f613b288261284b565b9150613b338361284b565b925082613b4357613b4261340f565b5b828204905092915050565b5f606082019050613b615f8301866129cb565b613b6e60208301856129cb565b613b7b60408301846128bc565b949350505050565b7f414c52454144595f434c4f5345440000000000000000000000000000000000005f82015250565b5f613bb7600e83612bf2565b9150613bc282613b83565b602082019050919050565b5f6020820190508181035f830152613be481613bab565b9050919050565b7f4e4f545f434c4f534544000000000000000000000000000000000000000000005f82015250565b5f613c1f600a83612bf2565b9150613c2a82613beb565b602082019050919050565b5f6020820190508181035f830152613c4c81613c13565b9050919050565b7f44454e00000000000000000000000000000000000000000000000000000000005f82015250565b5f613c87600383612bf2565b9150613c9282613c53565b602082019050919050565b5f6020820190508181035f830152613cb481613c7b565b9050919050565b5f604082019050613cce5f830185612f82565b613cdb60208301846128bc565b9392505050565b7f5a45524f5f544f000000000000000000000000000000000000000000000000005f82015250565b5f613d16600783612bf2565b9150613d2182613ce2565b602082019050919050565b5f6020820190508181035f830152613d4381613d0a565b9050919050565b7f42414c00000000000000000000000000000000000000000000000000000000005f82015250565b5f613d7e600383612bf2565b9150613d8982613d4a565b602082019050919050565b5f6020820190508181035f830152613dab81613d72565b9050919050565b5f5ffd5b82818337505050565b5f613dca8385612e5a565b93507f07ffffffffffffffffffffffffffffffffffffffffffffffffffffffffffffff831115613dfd57613dfc613db2565b5b602083029250613e0e838584613db6565b82840190509392505050565b5f6040820190508181035f830152613e33818688613dbf565b90508181036020830152613e48818486613dbf565b905095945050505050565b5f81519050919050565b5f81905092915050565b5f613e7182613e53565b613e7b8185613e5d565b9350613e8b818560208601612c02565b80840191505092915050565b5f613ea28284613e67565b915081905092915050565b7f4554485f5452414e534645525f4641494c0000000000000000000000000000005f82015250565b5f613ee1601183612bf2565b9150613eec82613ead565b602082019050919050565b5f6020820190508181035f830152613f0e81613ed5565b9050919050565b5f82825260208201905092915050565b828183375f83830152505050565b5f613f3e8385613f15565b9350613f4b838584613f25565b613f5483612c10565b840190509392505050565b5f60a082019050613f725f83018b612997565b613f7f602083018a612997565b8181036040830152613f9281888a613dbf565b90508181036060830152613fa7818688613dbf565b90508181036080830152613fbc818486613f33565b90509998505050505050505050565b5f819050602082019050919050565b5f613fe582516128e4565b80915050919050565b5f82821b905092915050565b5f61400482613e53565b8261400e84613fcb565b905061401981613fda565b92506004821015614059576140547fffffffff0000000000000000000000000000000000000000000000000000000083600403600802613fee565b831692505b5050919050565b7f52454a45435400000000000000000000000000000000000000000000000000005f82015250565b5f614094600683612bf2565b915061409f82614060565b602082019050919050565b5f6020820190508181035f8301526140c181614088565b9050919050565b5f819050919050565b6140e26140dd82612f79565b6140c8565b82525050565b5f6140f382856140d1565b60208201915061410382846140d1565b6020820191508190509392505050565b5f60a0820190506141265f830189612997565b6141336020830188612997565b61414060408301876128bc565b61414d60608301866128bc565b8181036080830152614160818486613f33565b905097965050505050505056fea26469706673582212207c87e47e6271c9bd0732c65b19cdc1b4e569e20b8119328b79dae1a518603acf64736f6c634300081e0033a2646970667358221220067a64d8a6ba9de060586d02ba6d10c663e0865ec000fbf99e831aca49d9dfe364736f6c634300081e0033","linkReferences":{}},"methodIdentifiers":{"defaultFeeBps()":"bcae25a4","deployMarket(address,address,int32,string)":"f41365bf","treasury()":"61d027b3"},"id":28}